:10C7D9003D3D3D20BBB7BEB3BCE0B2E2D2C7203D70
:05C7E9003D3D0D0A00BA
:10BAB60043BA8012C78112C41F12C97812C9D312A1
:10BAC600BCD812A17012C9F712C9B412B36012B968
:10BAD600BD7F3C7E00129BBA7F0112C68B7FC87E5B
:10BAE6000012C39DE4FF12C68B7BFF7AC779D91279
:10BAF600C82C127E711268837F0A7E0012C39D8055
:01BB0600F14D
:10008E0000C6DFCCA8BAD300C8FDD1C700C8FDC3D7
:10009E00F700C8FDC9B300C8FDC3C5CFBF00C9CFA7
:1000AE00BAA300C9CFC8C400B6ABDDB800B6ABD397
:1000BE00AA00D6D0CEC000D6D0C9BD00C1D9CFC4FB
:1000CE0000C1D9B7DA00C1D9D2CA00C1D9B2D7009E
:1000DE00B5A4B6AB00C0F6CBAE00C0F6BDAD00CE3B
:1000EE00DAC0BCB2ECB2BC00CEDABAA300CEDAC231
:1000FE00B3C4BEC6EB00C0D6C9BD00BEC5BDAD0003
:10010E00D4C6B8A100D9F1D6DD00D2C1B4BA00D29E
:10011E00C1C0E700B7F0C9BD00BCD1C4BECBB900A9
:10012E00B1A3B6A800B1A3C9BD00D0C5D1F400D902
:10013E00D9D6DD00BFCBD7CEC0D5CBD500BFCBC077
:10014E00ADC2EAD2C000C1F9B0B200C1F9C5CCCB84
:10015E00AE00C0BCD6DD00D0CBB0B200C4DABDADAF
:10016E0000C1B9C9BD00B0FCCDB700B1B1BEA90088
:10017E00B1B1BAA300CAAED1DF00C4CFBEA900C4CC
:10018E00CFB3E400C4CFC4FE00C4CFC6BD00C4CFFD
:10019E00B2FD00C4CFCDA800C4CFD1F400B2A9B631
:1001AE00FBCBFE00CFC3C3C500CBABD1BCC9BD00DA
:1001BE00CCA8D6DD00BACFB7CA00BCAAB0B200BC7C
:1001CE00AAC1D600CDC2C2B3B7AC00C2C0C1BA007C
:1001DE00CEE2D6D200D6DCBFDA00BAF4C2D7B1B4C2
:1001EE00B6FB00BAF4BACDBAC6CCD800BACDCCEFB5
:1001FE0000CFCCC4FE00CFCCD1F400B9FEC3DC00DE
:10020E00B9FEB6FBB1F500CCC6C9BD00C9CCC7F06E
:10021E0000C9CCC2E500BFA6CAB200BCCED0CB008E
:10022E00BCCED3F8B9D800CBC4C6BD00B9CCD4ADC2
:10023E0000CBFEB3C700B4F3D0CBB0B2C1EB00B469
:10024E00F3CDAC00B4F3C7EC00B4F3C0ED00B4F3DF
:10025E00C1AC00CCECCBAE00CCECBDF200CCABD440
:10026E00AD00CDFEBAA300C2A6B5D700D0A2B8D0BD
:10027E0000C4FEB5C200C4FEB2A800B0B2C7EC0006
:10028E00B0B2BFB500B0B2D1F400B0B2CBB300B6CD
:10029E00A8CEF700D2CBB1F600D2CBB2FD00D2CBB6
:1002AE00B4BA00B1A6BCA600D0FBB3C700CBDED655
:1002BE00DD00CBDEC7A800C9BDC4CF00D4C0D1F4C9
:1002CE0000B3E7D7F300B0CDD6D000B0CDD1E5C4A2
:1002DE00D7B6FB00B0CDD2F4B9F9C0E300B3A3D6C4
:1002EE00DD00B3A3B5C200C6BDC1B900C6BDB6A57B
:1002FE00C9BD00B9E3D4AA00B9E3B0B200B9E3D6E0
:10030E00DD00C7ECD1F400C0C8B7BB00D1D3B0B28A
:10031E0000D1D3B1DF00BFAAB7E200D5C5BCD2BFB2
:10032E00DA00D5C5BCD2BDE700D5C5D2B400D0EC3D
:10033E00D6DD00B5C2BAEA00B5C2D6DD00B5C2D16F
:10034E00F400D0C3D6DD00BBB3BBAF00B6F7CAA96D
:10035E0000BBDDD6DD00B3C9B6BC00D1EFD6DD00E3
:10036E00B3D0B5C200B8A7D6DD00B8A7CBB300C0D6
:10037E00ADC8F800BDD2D1F400C5CAD6A6BBA80040
:10038E00CEC4C9BD00D0C2CFE700D0C2D3E000CEEC
:10039E00DECEFD00C8D5BFA6D4F200C8D5D5D50097
:1003AE00C0A5C3F700B2FDBCAA00B2FDB6BC00D515
:1003BE00D1CDA800BDFAD6D000BDFAB3C700C6D5C0
:1003CE00B6FD00BEB0B5C2D5F200C7FABEB800CBBE
:1003DE00B7D6DD00B3AFD1F400B1BECFAA00C0B422
:1003EE00B1F600BABCD6DD00CBC9D4AD00C1D6D6AD
:1003FE00A500B9FBC2E500D4E6D7AF00C1F8D6DD43
:10040E0000D6EAD6DE00B9F0C1D600C3B7D6DD00FD
:10041E00CEE0D6DD00B3FED0DB00D3DCC1D600CEFD
:10042E00E4CDFE00CEE4BABA00B1CFBDDA00D3C03F
:10043E00D6DD00BABAD6D000C9C7CDB700C9C7CE6F
:10044E00B200BDADC3C500B3D8D6DD00C9F2D1F43C
:10045E0000B2D7D6DD00BAD3C4CF00BAD3B3D8001A
:10046E00BAD3D4B400C8AAD6DD00CCA9B0B200CCA1
:10047E00A9D6DD00E3F2D6DD00C2E5D1F400BCC39F
:10048E00C4CF00BCC3C4FE00BAA3B6AB00BAA3B1BE
:10049E00B100BAA3C4CF00BAA3BFDA00BAA3CEF795
:1004AE0000D7CDB2A900BBB4B1B100BBB4C4CF006C
:1004BE00BBB4B0B200C9EEDBDA00C7E5D4B600CEED
:1004CE00C2D6DD00CEBCC4CF00BAFEB1B100BAFEBA
:1004DE00D6DD00CFE6CCB600CFE6CEF700D5BFBD59
:1004EE00AD00B3FCD6DD00B1F5D6DD00E4F0BAD335
:1004FE0000D5C4D6DD00CEABB7BB00B3B1D6DD00A0
:10050E00E5A7D1F400D1CCCCA800BDB9D7F700C473
:10051E00B5B5A4BDAD00D3F1C1D600D3F1CAF70075
:10052E00D3F1CFAA00D6E9BAA300B8CAC4CF00B897
:10053E00CAD7CE00B0D7B3C700B0D7C9BD00B0D7A9
:10054E00D2F800B0D9C9AB00D2E6D1F400D1CEB307
:10055E00C700C5CCBDF500C3BCC9BD00CAAFD7EC42
:10056E00C9BD00CAAFBCD2D7AF00B8A3D6DD00C795
:10057E00D8BBCAB5BA00BAECBAD300C9DCD0CB002E
:10058E00CBE7BBAF00C3E0D1F400C1C4B3C700D505
:10059E00D8C7EC00D7D4B9B100D6DBC9BD00CEDFC9
:1005AE00BAFE00CBD5D6DD00C3AFC3FB00BEA3D6CB
:1005BE00DD00BEA3C3C500C6CECCEF00BACAD4F3CD
:1005CE0000C6BCCFE700D3AABFDA00BAF9C2ABB5FA
:1005DE00BA00B0F6B2BA00BAE2CBAE00BAE2D1F4CB
:1005EE0000E1E9D6DD00CFE5D1F400CEF7CBABB01C
:1005FE00E600CEF7C4FE00CEF7B0B200D0EDB2FDED
:10060E0000B9F3B8DB00B9F3D1F400BAD8D6DD00E7
:10061E00D7CAD1F400B8D3D6DD00B3E0B7E500C138
:10062E00C9D4B400C1C9D1F400B4EFD6DD00D4CB27
:10063E00B3C700C1ACD4C6B8DB00B5CFC7EC00CD94
:10064E00A8BBAF00CDA8C1C900CBECC4FE00D7F14A
:10065E00D2E500D0CFCCA800C4C7C7FA00BAAAB55D
:10066E00A600C9DBD1F400D6A3D6DD00B3BBD6DD20
:10067E0000B6F5B6FBB6E0CBB900B6F5D6DD00BEDA
:10068E00C6C8AA00D6D8C7EC00BDF0BBAA00BDF004
:10069E00B2FD00C7D5D6DD00CCFAC1EB00CDADC89A
:1006AE00CA00CDADB4A800CDADC1EA00D2F8B4A851
:1006BE0000CEFDC1D6B9F9C0D500BDF5D6DD00D549
:1006CE00F2BDAD00B3A4B4BA00B3A4C9B300B3A4D1
:1006DE00D6CE00B8B7D0C200B8B7D1F400B7C0B309
:1006EE00C7B8DB00D1F4BDAD00D1F4C8AA00B0A2EA
:1006FE00BFCBCBD500B0A2C0D5CCA900B0A2B0D391
:10070E0000B0A2C0ADC9C600B0A2C0EF00C2A4C462
:10071E00CF00CBE6D6DD00D1C5B0B200C7E0B5BA8A
:10072E0000B0B0C9BD00C9D8B9D800C2EDB0B0C9CB
:10073E00BD00D7A4C2EDB5EA00BCA6CEF700BAD76D
:10074E00B1DA00BAD7B8DA00D3A5CCB600BBC6B8BA
:10075E00D400BBC6C4CF00BBC6C9BD00BBC6CAAFA2
:10076E0000BADABAD300C7ADB6ABC4CF00C7ADC4BA
:10077E00CF00C7ADCEF7C4CF00C6EBC6EBB9FEB601
:10078E00FB00C1FAD1D200202D003120CAB1BCE449
:10079E00003220475053B6A8CEBB003320B5E7B386
:1007AE00D8B5E7D1B9003420CEC2CAAAB6C8003532
:1007BE0020BAA3B0CE003620B9E2D5D5003720B48A
:1007CE00C5B3A1003820434F32003920B7DBB3BE8A
:1007DE0000313020D4EBC9F900313120B7E7CBD945
:1007EE00B7E7CFF200313220CFB5CDB3D7D4BCECC2
:1007FE00003F00D6DCC8D500D6DCD2BB00D6DCB6B6
:10080E00FE00D6DCC8FD00D6DCCBC400D6DCCEE5BF
:10081E0000D6DCC1F9003F3F00B1B100B6ABB1B1BB
:10082E0000B6AB00B6ABC4CF00C4CF00CEF7C4CF7A
:10083E0000CEF700CEF7B1B1003A002D2D3A2D2D96
:10084E003A2D2D003230002D002000CAB1BCE4CE6E
:10085E00B4D0A3D7BC00475053B6A8CEBB2000BF20
:10086E00C500475053CBD1D0C7200054002D2D00CA
:10087E002048002520002D2D2D2D006D0055502FC8
:10088E00444ED1A120B3A4B0B45550BDF8003E00E3
:10089E002D2D2D2073656C6674657374202D2D2D92
:1008AE000D0A0049324320666F756E6420000D0AF2
:1008BE0000414443207370726561643D0054465F8D
:1008CE0043443D005350492032303030423D006D9C
:1008DE00730D0A00544620005041535300464149BF
:1008EE004C00564C3D3120CAB1BCE4D3D0D0A70049
:1008FE00564C3D3020CAB1BCE4CEDED0A7005043EA
:10090E00463835363320B6C1B2BBB5BD00CEB300C6
:10091E0053004E002E00BEAD0057004500CEDE2027
:10092E0047505320D0C5BAC500D0C7002F00CCEC1D
:10093E00CFDF00D5FDB3A300BFAAC2B700B6CCC2AD
:10094E00B700B5E7D1B92000205600B5E7C1BF20EA
:10095E000020250041444320D5FDB3A3004144436C
:10096E0020B3ACCAB100CEC2B6C82000204300CA24
:10097E00AAB6C82000534854343520D5FDB3A30081
:10098E00534854343520B6C1B2BBB5BD00434F32C7
:10099E0020002070706D00BAA3B0CE2000206D0034
:1009AE00C6F8D1B920002068506100424D5035384C
:1009BE003120D5FDB3A300424D5035383120B6C19C
:1009CE00B2BBB5BD00414C5320D6B5200056454DA7
:1009DE004C3737303020D5FDB3A30056454D4C373C
:1009EE0037303020B6C1B2BBB5BD00B9E2C7BF20AB
:1009FE002D2D00B9E2C7BF20BADCB0B500B9E2C7F1
:100A0E00BF20C6ABB0B500B9E2C7BF20CACAD6D0A8
:100A1E0000B9E2C7BF20C3F7C1C100B9E2C7BF200A
:100A2E00B4CCD1DB005820005920005A2000B7BDAD
:100A3E00CEBB00B6C800504D312E302000504D3286
:100A4E002E352000504D3130202000D4EBC9F92036
:100A5E000020644200D4EBC9F920B6C1B2BBB5BDCB
:100A6E0000D4EBC9F920D5FDB3A300BBB7BEB320AC
:100A7E00B0B2BEB200BBB7BEB320BDCFBEB200BBDC
:100A8E00B7BEB320CACAD6D000BBB7BEB320E0D023
:100A9E00D4D300BBB7BEB320BADCB3B300B7E7CB39
:100AAE00D92000206D2F7300B7E7BCB6200020BC04
:100ABE00B600B7E7CFF2200020B6C800544620D7C4
:100ACE00D4BCEC205041535300544620D7D4BCEC38
:100ADE00204641494C00493243200020B8F6B4D399
:100AEE00BBFA0041444320CAFDBEDDC6ABD2C600F0
:100AFE00CEB4CAB5CFD600CBA2D0C2D6D02E2E2E13
:100B0E00000A16269E008E11E2332D008F07222A30
:100B1E00C800960A432DF5009B0BD82BDA00A00DCA
:100B2E00962B7100A50C342F7400AC0B1E2E1300E7
:100B3E00B108FF2C7000B60EA02E5C00BB0EA729CC
:100B4E001800C008CC2C4C00C50DE9285500CA0E63
:100B5E00192B9100CF0DB72E3C00D40955271A0042
:100B6E00D90FA1309400DE0B1F2ED900E30A7E2789
:100B7E002700E810042C3200ED0F7E29B800F61184
:100B8E001F223A00FB0B8C288901040B9B2D51016F
:100B9E000908F42BC5010E0D392D3A011312A53299
:100BAE0055011811281FC5011D08FF2C31012212F5
:100BBE004932E901270F302D1B012E09D226BE0125
:100BCE00330C8F2C92013807AC2AA5013D0F841DE2
:100BDE00C1014211CF212A014B0C662D8501540A09
:100BEE006428F401590E172890016012012FAC01F0
:100BFE00650B8F290A016A0AE527F3016F0FE22AB6
:100C0E00E901740F972D79017908652AA1017E0CEF
:100C1E00C02B4801830C862E6801880C0C297401A8
:100C2E008D08EA2A5501920A692E2A01970B352D55
:100C3E0042019C0C7F2F3A01A10CE42BF501A61169
:100C4E008B200F01AB09912E2201B21239333D01D7
:100C5E00B70B322F6F01BE0C6F2DCB01C30A982C30
:100C6E00EC01C81120317001CD10C822D801D20E6E
:100C7E00A82B6B01D90ED8297D01DE0D232CCE01B8
:100C8E00E3133A2EC901E80FF52BA801F10E801FD0
:100C9E003901FA0BA92CA901FF0D6A2A780204105A
:100CAE00BB2488020911E5316E020E0F7C2E2B0239
:100CBE00150D722D2E021A0D3C2AF0021F0F6C1DFF
:100CCE00B002240C032F2C02290F8A2666022E1046
:100CDE00DD309402350E122981023A1243206B0246
:100CEE003F13B2307F02440FA82C43024D12333013
:100CFE00DF02520A00272802570F342F82025C0DA2
:100D0E0083294D02610F452DC902660ECC2BF802C8
:100D1E006B0EA82FB502700AD22BC002750C152CC3
:100D2E0080027A0A6B2EB3027F0BAB2F8302840BE9
:100D3E00ED2DBA02890CC52A98028E0E1B2CB0021C
:100D4E00930A42296302980DE728DF029D0B3C2887
:100D5E00E102A20BFE2B7902A70ADE2CB202AC0D29
:100D6E006D29E402B10C172E6502B60D252DB102C8
:100D7E00BB0D452E3402C00B6C23DA02C50B782C4A
:100D8E003202CA08BE29F102CF0C7329B302D40F66
:100D9E00EB29F302D9105121A702E20C6E2EDE02CE
:100DAE00EB0B582BA302F00DE329AB02F50D312C02
:100DBE003802FA0CAC295903010BE629A8030609DF
:100DCE000A2C3F030B0DF42A0D03100F722D950301
:100DDE00150E4B2AC6031A10C43294031F0D982CFD
:100DEE00A703240FED2CE103290B602B2903300FF1
:100DFE0035273E03370D5D2DD1033C098C26830329
:100E0E00410EA02D7503460C2928C8034B0F022C4A
:100E1E000A03500AC62AF903550BD42AC5035A09E8
:100E2E00082CB2035F0BFA28A803640CA82EA603A5
:100E3E006910002E15036E0AEB2D740373105D30CE
:100E4E006C03780B952398037D09342D7603820A63
:100E5E006327BD0387092528B6038E0DCB2C81038E
:100E6E00930ADE2CE403980C4E2F00039D0B702288
:100E7E00B903A20DD62EB103A909B7282D03AE11C1
:100E8E0032221C03B30C2B25F603B80AAE288403BA
:100E9E00BD0EB92C0C03C20DDE2C1603C708EB27B2
:100EAE007103CC0B6F2DC603D109F6288C03D80F16
:100EBE005E2BEC03DD103E2F0E03E2103530510396
:100ECE00E709482AAB03EC0BD12EF603F111A33040
:100EDE00C303F60B9524DD03FB0D78272904000DC3
:100EEE009A2DD5040509812ABF040A0ADF2C320483
:100EFE000F09DC2B0C0414097D2D5D0419092C2B14
:100F0E0079041E09C927A904230EF52ADE04280E2A
:100F1E00D12818042D0BF42CA704320AA929220477
:100F2E00370A532B9A043C0CEB29CF044109202D90
:100F3E0095044608E72D12044B08D22C2D04500BB5
:100F4E00FB2DE604551048303B045A0EF72DA50430
:100F5E005F0D952C70046409A62A39046909472C83
:100F6E00CF046E09B82E5C04730E252DBD04780CCB
:100F7E00AE2ED9047D0B48293104820D862BEE044A
:100F8E00870E522DC1048C0DD62D8B04910E432746
:100F9E00E304960E70276B049B07D32B1C04A00E44
:100FAE002D274F04A007D42B1904A50E9A260A0448
:100FBE00AA0E622E1E04AF0D442DA004B40CBF2D3C
:100FCE00B504B90D222E7E04BE08CF2C8E04C309A3
:100FDE00412C2A04C80AF02F2704CD0D7B2AC80401
:100FEE00D20BEF2CAB04D70C122EE904DC0AE02C4A
:100FFE001F04E10B102ADF04E608502B1D04EB0C36
:10100E009A2E3A04F00E9B2E1604F50D1F2C8A0410
:10101E00FA09942DF504FF0E572E8D0504093E2D69
:10102E008F05090DF92CF0050E0EA32F7105130D6A
:10103E00C22C3D0518116832A4051D08DA2B0B05CC
:10104E00240CE525E505290984280F052E08B42C66
:10105E005E05330DAB283405380BBE27D5053D1183
:10106E00D32FFD05421062316305470E4728AE05AA
:10107E004C095729A605510B282BE405560D082EB1
:10108E00F1055B10112FB005600BC0289205650F9E
:10109E003B298F056A0EDD2CB705710A302E9A0595
:1010AE00780F9A2EB9057D0921280305840BBC2FD4
:1010BE001B0589123A319A058E0C4B28E505930EC5
:1010CE003E2D4F059809012BEF059D0B7728EE0558
:1010DE00A20BB72FBD05A70C402E4405AC0C3A2F22
:1010EE001B05B108772B5505B60BDA2BD905BB0CB2
:1010FE00202BD505C009F22E7D05C50DC42D1D056D
:10110E00CA0ACB2C7A05CF0FE32FC005D40FE82FD8
:10111E003405D90CDC2DDC05E00EBF2D3005E50ABB
:10112E00822BFA05EA0B522E6F05EF0C812BCD05A3
:10113E00F40899276005F90E4E27C206000D6B2A9A
:10114E008F06050D4C2C7A060A09082AD1060F0ABD
:10115E006929A8061409892B9506190BC528DF06DF
:10116E001E0A182CE6062310822E72062810C13095
:10117E00E3062D101F302406320C3129FB06370DE5
:10118E00AF2B5D063C0D842E9306410ADF26F30637
:10119E0048104D3133064D110E2FC106520BEE295C
:1011AE004006570AD529C5065C0E7C2CEF06610C4D
:1011BE004C23F606660E4F2CBF066B0AA52B8B062C
:1011CE00700D932C6306750A122C26067A0F792A57
:1011DE00E3067F0BE02CE206880F86267A068D0B3F
:1011EE008D29A006920B8D29A006920B5C2EBD06B2
:1011FE00970F0D27EB069C08972A7206A1107F30D9
:10120E005506A60AD62AA806AB0DA22A8F06B00C42
:10121E00172E0606B50F09298006BA112A2D550676
:10122E00BF100E2F5106C80C932EA706CD111E30DF
:10123E00F506D20B072C1F06D70E242C3006DC1019
:10124E006B2F8806E10CDA2D3E06E608792A540645
:10125E00EB088A2BBF06F20ECA2C5F06F710161F7C
:10126E005B06FC12B1226F07030CDB27BB070A0FCC
:10127E002E294E070F0CB31F4B07160D0D28FD0719
:10128E001B0C622C4B07200BBA284107250E172F7B
:10129E0007072A1010300C072F09B22C6007340CE8
:1012AE00602E4B07390CE62C8B074011B2332A0700
:1012BE00470DF72CA6074C128032E607510B0B2D6B
:1012CE00BC07560BE62CE0075B0DE127DA07600B37
:1012DE009C2E3B07650BCD2CF1076A13A131D2076B
:1012EE006F0A632A2F07740A422A01077B0A8D2987
:0F12FE006C078012803068078709CC2DB60790E7
:0E66740090073EECF0A3EDF0A3EAF0A3EBF0EC
:10668200E4FCFD7B64FAF9F812162DC004A905AAF0
:1066920006AB0790073EE0FEA3E0FF7C007D64129C
:1066A200148FE4FCFDD000EB2FFFEA3EFEED39FD36
:1066B200EC38FC90074412186C900740E0FEA3E00F
:1066C200FFE4FCFD7B64FAF9F812162DC004A9055B
:1066D200AA06AB07900742E0FEA3E0FF7C007D64C0
:1066E20012148FE4FCFDD000EB2FFFEA3EFEED39E1
:1066F200FDEC38FC90074812186C74FF90075AF0B2
:10670200A3F0900754121878FFFFFFFFE490075898
:10671200F0A3F0900758E0FEA3E0FFC39455EE64A7
:106722008094814003026854900B0F75F006EF12BB
:1067320018E7EE75F006A42583F583E493FE740151
:1067420093FBAA06EA3395E0F9F8900744E0FCA32C
:10675200E0FDA3E0FEA3E0C39BFFEE9AFEED99FDF0
:10676200EC98FC90074C12186C900758E0FEA3E0DE
:10677200900B1175F0061218E7EE75F006A425834A
:10678200F583E493FE740193FBAA06EA3395E0F9DC
:10679200F8900748E0FCA3E0FDA3E0FEA3E0C39B62
:1067A200FFEE9AFEED99FDEC98FCF8A905AA06AB5E
:1067B2000712162DE47B03FAF9F812162DE47B0476
:1067C200FAF9F8120046C004C005C006C0079007D7
:1067D2004CE0FCA3E0FDA3E0FEA3E0FFA804A905B2
:1067E200AA06FB12162DD003D002D001D000EF2B47
:1067F200FFEE3AFEED39FDEC38FC90075012186CB2
:10680200900754E0FCA3E0FDA3E0FEA3E0FF9007A5
:1068120050E0F8A3E0F9A3E0FAA3E0FBC312175794
:10682200501F900750E0FCA3E0FDA3E0FEA3E0FFB1
:10683200A312186C900758E0FFA3E0A3CFF0A3EFD8
:10684200F0900759E004F07006900758E004F00257
:10685200671590075AE0FCA3E0FDC3EC64809480C6
:106862005004E4FEFF22900B1375F006ED1218E7B8
:10687200EC75F006A42583F583E493FE740193FF7F
:0168820022F3
:0E986D00900736EFF0A3EBF0A3EAF0A3E9F0CA
:10987B00900010121571FFAEF04E7018900737E084
:10988B00FBA3E0FAA3E0F990001212157145F070FA
:10989B0003029942900737E0FBA3E0FAA3E0F990AB
:1098AB000012121571FDACF0900014121571FBAA89
:1098BB00F0C002C003900737E0FBA3E0FA9000165C
:1098CB00121571FB900742E5F0F0A3EBF0D003D03B
:1098DB000212667490073AEEF0A3EFF04E605890C8
:1098EB00073AE0FEA3E0FFE4FDFC8F828E83E49356
:1098FB00601AC39480400974022FFFE43EFE80057A
:10990B000FBF00010E0DBD00010C80DED3ED9405E1
:10991B00EC940040047C007D05EDC454F0FFC3744F
:10992B00809FFE900736E0FFAD0690073AE0FAA362
:07993B00E0F97BFF12A6CB4F
:019942002202
:0BC7EE00900731EBF0A3EAF0A3E9F0A4
:0AC7F900E49004ECF09004F7F02245
:10B8B6009004F2E0FF12BD6A7BFF7A08794712B85E
:0DB8C600D39004F3E0FF12BD6A7A087947C1
:10B8D300121403FF60259004ECE0FEC39418501B80
:10B8E30074F72EF582E43404F583EFF09004ECE072
:10B8F30004F0740129F9E43AFA80D59004ECE024C9
:0BB90300F7F582E43404F583E4F02241
:10C5D9007BFF12B8D3900731E0FBA3E0FAA3E0F99F
:09C5E900900001121571FFAEF083
:06C5F200127CFC02B8D32C
:10C5F8007BFF12B8D3900731E0FBA3E0FAA3E090E9
:09C608000002F912141CFF7E006F
:06C6110012BA6402B8D366
:09C3710090000A121571FFAEF0F4
:10C37A00AD07AC06C3EC6480948050107BFF7A074B
:10C38A00799512B8D3C3E49DFDE49CFCAE04AF05D5
:03C39A0002C611C7
:10AB9C00EFB40C00400302AC2490ABACF828287343
:10ABAC0002ABD002ABD702ABDE02ABE502ABEC02E0
:10ABBC00ABF302ABFA02AC0102AC0802AC0F02AC74
:10ABCC001602AC1D7BFF7A077998227BFF7A0779F6
:10ABDC009F227BFF7A0779A9227BFF7A0779B4221F
:10ABEC007BFF7A0779BD227BFF7A0779C4227BFF32
:10ABFC007A0779CB227BFF7A0779D2227BFF7A07FF
:10AC0C0079D8227BFF7A0779DF227BFF7A0779E7F5
:0FAC1C00227BFF7A0779F3227BFF7A0779FF22E9
:10A9E6007BFF7A08795212B8D39004EFE0FF12BDCC
:10A9F6006A7A08795512B8D39004F0E0FF12BD6A5E
:10AA06007A08795512B8D39004F1E0FF12BD6A7A3C
:0BAA160008795712B8D39004F5E0FF58
:10AA2100EFB40700504D90AA2EF828287302AA43CC
:10AA310002AA4A02AA5102AA5802AA5F02AA6602FF
:10AA4100AA6D7BFF7A087901227BFF7A08790622B9
:10AA51007BFF7A08790B227BFF7A087910227BFF32
:10AA61007A087915227BFF7A08791A227BFF7A0806
:0AAA7100791F227BFF7A0879242266
:10BD6A00EF75F00A842430FE9004ECE024F7F582A3
:10BD7A00E43404F583EEF09004ECE004F0EF75F09F
:10BD8A000A84E5F02430FFE024F7F582E43404F570
:10BD9A0083EFF09004ECE004F0E024F7F582E43459
:06BDAA0004F583E4F02221
:07A0C000F9121571FFAEF06B
:10A0C700AB07AA067C037DE812148F7C007D0A1279
:10A0D700148FED2430FF9004ECE024F7F582E4348C
:10A0E70004F583EFF09004ECE004F07C007D64AFAE
:10A0F70003AE0212148F7C007D0A12148FED2430F8
:10A10700FFE024F7F582E43404F583EFF09004ECE4
:10A11700E004F07C007D0AAF03AE0212148F7C00CE
:10A127007D0A12148FED2430FFE024F7F582E43422
:10A1370004F583EFF09004ECE004F0AE02AF037C8B
:10A14700007D0A12148FED2430FFE024F7F582E436
:10A157003404F583EFF09004ECE004F0E024F7F525
:09A1670082E43404F583E4F022E3
:106E3900900738ECF0A3EDF0900736EEF0A3EFF0F1
:106E49004E700BA3E07002A3E07003FEFF229007CF
:106E590036E0FEA3E0FFC3EE648094805009C3E4EA
:106E69009FFFE49EFE8008900736E0FEA3E0FF90B6
:106E7900073AEEF0A3EFF0900738E0FEA3E0FFC376
:106E8900EE648094805009C3E49FFFE49EFE80086D
:106E9900900738E0FEA3E0FF90073CEEF0A3EFF087
:106EA900C390073BE09FEE6480F890073AE0648066
:106EB900985003026F5A90073CE0FEA3E0FFEE33BF
:106EC90095E0FDFCE47B2DFAF9F812162DC006C0F9
:106ED9000790073AE0FEA3E0FBAA06EA3395E0F93A
:106EE900F8D007D00612004690073EEEF0A3EFF067
:106EF900C3900736E0648094804029900738E064A5
:106F0900809480400B90073EE0FEA3E0FF026FF6FD
:106F190090073EE0FEA3E0FFC374689FFF74019EE3
:106F2900FE026FF6C3900738E064809480401190A8
:106F3900073EE0FEA3E0FF74B49FFFE49EFE800ECF
:106F490090073FE024B4FF90073EE03400FE026F53
:106F5900F690073AE0FEA3E0FFEE3395E0FDFCE48E
:106F69007B2DFAF9F812162DC006C00790073CE0F0
:106F7900FEA3E0FBAA06EA3395E0F9F8D007D006AC
:106F890012004690073EEEF0A3EFF0C3900738E0F9
:106F990064809480402B900736E06480948040118F
:106FA90090073EE0FEA3E0FF745A9FFFE49EFE8037
:106FB9000E90073FE0245AFF90073EE03400FE8020
:106FC9002CC3900736E064809480401090073FE01E
:106FD900240EFF90073EE03401FE801190073EE049
:106FE900FEA3E0FFC3740E9FFF74019EFE9007404D
:106FF900EEF0A3EFF0900740E0FEA3E0FF7C017DF7
:087009006812148FAE04AF05FC
:01701100225C
:10B17900C3EF9417EE94004008EF9452EE94014007
:10B18900077BFF7A08792722C3EF9444EE94005095
:10B19900077BFF7A08792A22C3EF9471EE94005055
:10B1A900077BFF7A08792F22C3EF949EEE94005013
:10B1B900077BFF7A08793222C3EF94CBEE940050D3
:10B1C900077BFF7A08793722C3EF94F8EE94005091
:10B1D900077BFF7A08793A22C3EF9425EE94017B25
:0DB1E900FF50057A08793F227A087942224A
:1075600012CA6012C7F9900716E060139004F6E0A3
:10757000600D12B8B69004F4E0FF12BD6A80097B7A
:10758000FF7A08794912B8D37B017A0479F7E4FFCE
:0375900012A21E26
:1075930012CA10900731EBF0A3EAF0A3E9F09000D0
:1075A3000312141CFBC003900731E0FBA3E0FAA312
:1075B300E0F990000212141CC3940A500A900724A5
:1075C300E060047F0180027F00900737EFF0D00373
:0775D3007D58E4FF12B85CD3
:1075DA0012C7F9900716E0600B9004F6E0600512F6
:1075EA00A9E680067BFF7A08795912B8D37B017A1B
:0875FA000479F77F0212A21EC2
:1076020012CA0990073112C7F1900731E0FBA3E0DB
:10761200FAA3E0F91214037BFF60177A0879641267
:10762200B8D3900731E0FBA3E0FAA3E0F9900001A0
:1076320080157A08797012B8D3900731E0FBA3E085
:10764200FAA3E0F990000212C60B7BFF7A08796D6B
:0E76520012B8D37B017A0479F77F0412A21ECE
:1076600012CA1790073112C7F17BFF7A0879791295
:10767000B8D3900731E0FBA3E0FAA3E0F9121403BA
:10768000600512C5E980097BFF7A08797B12B8D3BF
:107690007BFF7A08797E12B8D3900731E0FBA3E034
:1076A000FAA3E0F91214036015900003121571FF9C
:1076B000AEF07C007D0A12148F12C61180097BFF88
:1076C0007A08797B12B8D37BFF7A08798112B8D314
:1076D000900731E0FBA3E0FAA3E0F9900005121453
:1076E0001C600512C37180097BFF7A08798412B887
:1076F000D37BFF7A08798912B8D37B017A0479F7B2
:057700007F0602A21E3D
:10B07B0012CA607BFF7A08798BE4FF12A21EE49060
:10B08B000731F0900731E0FFC39403506290051134
:10B09B00E02F900732F0C3940C4011900731E0255C
:10B0AB00E02402FF7BFF7A00798E803812C7F9907B
:10B0BB0004EDE0FF900732E07BFFB507067A0879D5
:10B0CB009C80047A08795712B8D3900732E0FF12AC
:10B0DB00AB9C12B8D3900731E025E02402FF7B0133
:0FB0EB007A0479F712A21E900731E004F08094E6
:01B0FA002233
:107A0B007BFF7A08799E12C82C7B017A0779177D48
:107A1B000C12BBF99004EEEFF07BFF7A0879B112F0
:107A2B00C82C9004EEE0FF7E0012B59F7BFF7A0816
:107A3B0079BC12C82C9007437401F0A37407F0A310
:107A4B007438F0A37401F0A37407F0A3743AF07BBD
:107A5B00017A0779367D207F091294F8900736E07A
:107A6B00FEA3E0FFC3900739E09FFF900738E09E2D
:107A7B00FEC3EF94F4EE940150047F0180027F006B
:107A8B00900515EFF07BFF7A0879BF12C82C900791
:107A9B0036E0FEA3E0FFC3900739E09FFF90073865
:107AAB00E09EFE12B59F7BFF7A0879BC12C82C7B37
:107ABB00FF7A0879CB12C82C3084047F3180027F87
:107ACB003012C6D97BFF7A0879BC12C82C12C2803F
:107ADB0090073CEEF0A3EFF07BFF7A0879D212C847
:107AEB002C90073CE0FEA3E0FF12B59F7BFF7A08CA
:107AFB0079DD12C82C126436EF70319007F37405E0
:107B0B00F0A37416F07F007E007D007C0012A8B1FC
:107B1B00EF7010900714E0B45509A3E0B4AA047FEA
:107B2B000180027F00900726EFF08005E490072686
:107B3B00F07BFF7A0879E212C82C900726E07BFFD6
:107B4B0060067A0879E680047A0879EB12C82C7BF8
:107B5B00FF7A0879BC12C82C129A1812BFB47B3961
:107B6B007A30E4FDFF12A94F7F0712B52E12CA57C8
:0A7B7B007F507E0012C39D02CA5A1B
:101CE40012CA609004EDE0FF12AB9CE4FF12A21E46
:101CF4009004EDE0B40C0040030225F7901D07F8B2
:101D0400282873021D2B021D7D021F64022013026A
:101D140021280221B802229C022084022382022468
:101D240007022505022595900716E0604312C7F9BE
:101D340012A9E612B8D37B017A0479F77F0212A2C2
:101D44001E12C7F912B8B69004F4E0FF12BD6A7B04
:101D5400017A0479F77F0412A21E9004F6E07BFF57
:101D640060077A0879F00222997A0879FE022299AA
:091D74007BFF7A09790C0225FDC0
:101D7D0012CA09900731EBF0A3EAF0A3E9F0E4FFF2
:101D8D0012986D12C7F9900731E0FBA3E0FAA3E0BA
:101D9D00F990000E12141CFF644E600FEF64536037
:101DAD000A90001012157145F0605E7BFF7A09797B
:101DBD001B12B8D3900731E0FBA3E0FAA3E0F99032
:101DCD00000E12141C7BFFB453067A09791E800491
:101DDD007A09792012B8D3900731E0FBA3E0FAA37A
:101DED00E0F9900010121571FFAEF012C6117BFFD5
:101DFD007A09792212B8D3900731E0FBA3E0FAA358
:101E0D00E090001212A0C080097BFF7A08797B1246
:101E1D00B8D37B017A0479F77F0212A21E12C7F99B
:101E2D00900731E0FBA3E0FAA3E0F990000F121444
:101E3D001CFF6445600FEF6457600A900014121583
:101E4D007145F0605E7BFF7A09792412B8D3900753
:101E5D0031E0FBA3E0FAA3E0F990000F12141C7B14
:101E6D00FFB457067A09792780047A09792912B8BF
:101E7D00D3900731E0FBA3E0FAA3E0F99000141230
:101E8D001571FFAEF012C6117BFF7A09792212B8D7
:101E9D00D3900731E0FBA3E0FAA3E090001612A067
:101EAD00C080097BFF7A08797B12B8D37B017A0455
:101EBD0079F77F0412A21E12C7F9900731E0FBA338
:101ECD00E0FAA3E0F990000B12157145F070097B53
:101EDD00FF7A09792B021F5E7BFF7A09793712B8D9
:101EED00D3900731E0FBA3E0FAA3E090000112C606
:101EFD000A7A09793A12C5F87BFF7A08795712B830
:101F0D00D37A09793C12B8D3900731E0FBA3E0FAFC
:101F1D00A3E0F990000D12141CFDB401087BFF7AAB
:101F2D00097941802CEDB402087BFF7A097946804E
:101F3D0020900731E0FBA3E0FAA3E0F990000D1229
:101F4D00141C7BFFB403067A09794B80047A087957
:071F5D007B12B8D302258DB1
:101F640012CA1012C7EE7BFF7A09795012B8D390C7
:101F74000731E0FBA3E0FAA3E0F9121546FFAEF047
:101F84007C037DE812148F12C6117BFF7A09792233
:101F940012B8D3900731E0FBA3E0FAA3E0F91215DD
:101FA40046FFAEF07C037DE812148F7E007F64CF81
:101FB400CDCFCECCCE12148F12C6117BFF7A097905
:101FC4005612B8D37B017A0479F77F0212A21E124B
:101FD400C7F97A09795912C5F87BFF7A09795F1232
:101FE400B8D37B017A0479F77F0412A21E900731DB
:101FF400E0FBA3E0FAA3E0F990000412141C7BFFB9
:0F20040060067A09796280047A09796B02229961
:1020130012CA1712C7EE7A09797412C5D97BFF7AEF
:1020230009797A12B8D37B017A0479F77F0212A275
:102033001E12C7F97BFF7A09797D12B8D390073155
:10204300E0FBA3E0FAA3E0F990000312C5EC7BFFE9
:102053007A09795F12B8D37B017A0479F77F041286
:10206300A21E900731E0FBA3E0FAA3E0F9121403E8
:102073007BFF60067A09798380047A09798E0222CC
:0120830099C3
:1020840012CA1712C7EE7BFF7A09799B12B8D39054
:102094000731E0FBA3E0FAA3E0F990001612141C48
:1020A4006014900017121571FFAEF012C6117BFF79
:1020B4007A0979A080067BFF7A08797B12B8D37BF2
:1020C400017A0479F77F0212A21E12C7F97BFF7A04
:1020D40009797412B8D3900731E0FBA3E0FAA3E0C6
:1020E400F990001912C5EC7BFF7A09797A12B8D3FA
:1020F4007B017A0479F77F0412A21E12C7F97BFFD1
:102104007A09797D12B8D3900731E0FBA3E0FAA3F2
:10211400E0F990001B12C5EC7BFF7A09795F12B8D5
:04212400D302258D30
:1021280012CA1712C7EE7BFF7A0979A512B8D390A5
:102138000731E0FBA3E0FAA3E0F912C3717BFF7A51
:102148000979AB12B8D37B017A0479F77F0212A21E
:102158001E12C7F97BFF7A0979AE12B8D3900731FE
:10216800E0FBA3E0FAA3E0F99000061217AEE47BC7
:102178000AFAF9F81216B812C5F27BFF7A0979B48F
:1021880012B8D37B017A0479F77F0412A21E900754
:1021980031E0FBA3E0FAA3E0F990000512141C7BE0
:1021A800FF60067A0979B980047A0979C50222990B
:1021B80012CA17900731EBF0A3EAF0A3E9F09000F8
:1021C8000D121571FF900734E5F0F0A3EFF012C778
:1021D800F97BFF7A0979D312B8D3900734E0FEA3CC
:1021E800E0FF12C6117B017A0479F77F0212A21E62
:1021F800900731E0FBA3E0FAA3E0F990000C121479
:102208001C7BFF60067A0979DB80047A0979E97F0B
:102218000412A21E900731E0FBA3E0FAA3E0F990B4
:10222800000C12141C70087BFF7A0979F98062C3CC
:10223800900735E09414900734E0940050087BFF31
:102248007A0A7901804BC3900735E094C890073427
:10225800E0940050097BFF7A0A790B022502C390AB
:102268000735E094A0900734E0940F50097BFF7A7B
:102278000A7915022502C3900735E09420900734A7
:10228800E0944E7BFF50067A0A791F80047A0A7917
:0422980029022502F0
:10229C0012CA1712C7EE7BFF7A0A793312B8D390A1
:1022AC000731E0FBA3E0FAA3E0F990001012C5ECB3
:1022BC007B017A0479F77F0212A21E12C7F97BFF09
:1022CC007A0A793612B8D3900731E0FBA3E0FAA36F
:1022DC00E0F990001212C5EC7B017A0479F77F04C7
:1022EC0012A21E12C7F97BFF7A0A793912B8D39061
:1022FC000731E0FBA3E0FAA3E0F990001412C5EC5F
:10230C007B017A0479F77F0612A21E900731E0FB5D
:10231C00A3E0FAA3E0F9900010121571FFAEF09053
:10232C000012121571FDACF0126E39900734EEF0FC
:10233C00A3EFF07BFF7A0A793C7D487F0212A6CB93
:10234C00900734E0FEA3E0FF12B1797D487F0412C0
:10235C00A6CB12C7F9900734E0FEA3E0FF12C6111A
:10236C007BFF7A0A794112B8D37B017A0479F77D25
:06237C00487F0602A6CB1B
:1023820012CA1E12C7EE7BFF7A0A794412B8D390A2
:102392000731E0FBA3E0FAA3E0F990000112157106
:1023A200FFAEF012C6117B017A0479F77F0212A206
:1023B2001E12C7F97BFF7A0A794B12B8D390073104
:1023C200E0FBA3E0FAA3E0F9900003121571FFAE5F
:1023D200F012C6117B017A0479F77F0412A21E1251
:1023E200C7F97BFF7A0A795212B8D3900731E0FB22
:1023F200A3E0FAA3E0F9900005121571FFAEF01206
:05240200C61102258D4A
:1024070012CA2C12C7EE7BFF7A0A795912B8D390F9
:102417000731E0FBA3E0FAA3E0F9121403600B1203
:10242700C5E97BFF7A0A795F80067BFF7A08797BAB
:1024370012B8D37B017A0479F77F0212A21E9007A4
:1024470031E0FBA3E0FAA3E0F912140370147BFF59
:102457007A0A79637F0412A21E7BFF7A00798E02C3
:1024670025027BFF7A0A796F7F0412A21E9007313B
:10247700E0FBA3E0FAA3E0F9900001121571C39401
:10248700A0E5F0940F50087BFF7A0A7979806C9069
:102497000731E0FBA3E0FAA3E0F990000112157100
:1024A700C39488E5F0941350097BFF7A0A79830275
:1024B70025F3900731E0FBA3E0FAA3E0F9900001D0
:1024C700121571C39470E5F0941750097BFF7A0ACF
:1024D700798D0225F3900731E0FBA3E0FAA3E0F939
:1024E700900001121571C39458E5F0941B7BFF50BF
:0E24F700067A0A799780047A0A79A10225F301
:1025050012CA2512C7EE7A0A79AB12C5D97BFF7AB2
:102515000A79B112B8D37B017A0479F77F0212A246
:102525001E12C7F97BFF7A0A79B612B8D390073124
:10253500E0FBA3E0FAA3E0F990000312C60B7BFFD2
:102545007A0A79BC12B8D37B017A0479F77F041231
:10255500A21E12C7F97BFF7A0A79C012B8D3900779
:1025650031E0FBA3E0FAA3E0F990000412141C602B
:102575000E90000512C5EC7BFF7A0A79C680067BB2
:10258500FF7A08797B12B8D37B017A0479F7805EEC
:10259500900514E0700504F0127A0B900726E07B95
:1025A500FF60067A0A79CA80047A0A79D77F02120F
:1025B500A21E12C7F97BFF7A0A79E412B8D39004F8
:1025C500EEE0FF7E0012C6117BFF7A0A79E912B8A8
:1025D500D37B017A0479F77F0412A21E900515E0DA
:1025E5007BFF60067A09796280047A0A79F17F06B1
:0E25F50080087BFF7A0A79FE7F0212A21E2266
:10C75300900725E07003027560900725E0B401039C
:07C7630002B07B121CE4226E
:108A6500EF24FE603D146070147003028B3D14709A
:108A750003028B08147003028B5024056003028BDC
:108A850065900725E0FF700504F0028B33EFB40114
:108A950008E4900725F0028B339007257401F00256
:108AA5008B33900725E06003028B657F32FE129BB6
:108AB500BA7BFF7A0B79057F0612A21E7B017A0429
:108AC50079EF128F559007167401F0128E5B12B86C
:108AD500029007237401F022900725E064016003EA
:108AE500028B659004EDE0D394004015E014F090FE
:108AF5000511E0FF9004EDE0FE9F5005900511EE95
:108B0500F0802B900725E0640170559004EDE0C3DB
:108B1500940B501AE004F0900511E02403FF900433
:108B2500EDE0FEC39F4007EE24FE900511F090078F
:108B3500237401F07F148023900725E0B40121748C
:108B450002F090072314F07F328010900725E0B4DF
:108B5500020E7401F0900723F07F327E00129BBA5B
:018B650022ED
:10B9BD00E4900725F09004EDF0900511F090072329
:10B9CD0004F0E4900716F0900724F09004EAF0A339
:10B9DD00F0900512F0A3F012C8C012B7A312C8D18F
:10B9ED0012B1F612C34312C8E212C7C312C96A12CA
:10B9FD009AEA128E5B7B017A0479EF128F559007CC
:04BA0D0016EFF0221E
:0F68830012B802128B6612862112A810125ED66E
:1068920012C9A990072AEFF06023E0FFC3943140A8
:1068A20010EFD39439500AC3EF9430FF12B2EA804A
:0D68B200DF90072AE0B430D8129F5B80D33E
:1068BF0012C065128C64EF60147B017A0479EF12B9
:1068CF008F55900716EFF09007237401F012C472E2
:1068DF00900727EFF06007E0FF128A6580EF900BBB
:1068EF0018E0FFA3E0900728CFF0A3EFF09004EAA1
:1068FF00E0FEA3E0FF900728E0FCA3E0FDC39FFFAD
:10690F00EC9EFEC3EF94E8EE940340479004EAEC4C
:10691F00F0A3EDF07B017A0479EF128F55900716F3
:10692F00EFF0900725E0FF6003B402069007237491
:10693F0001F0EF701E900728E0FEA3E0FF7C017DC1
:10694F00F412148FEF30E0047F0180027F00900774
:10695F0024EFF0900512E0FEA3E0FF900728E0FC83
:10696F00A3E0FDC39FFFEC9EFEC3EF9410EE9427B0
:10697F00401B900512ECF0A3EDF0128E5B900725F3
:0D698F00E0FF6003B402069007237401F0DE
:10699C0012CA0990072AEBF0A3EAF0A3E9F09007DA
:1069AC0028E0FEA3E0FF7C017DF412148FEF54016C
:1069BC0090072FF090072AE0FBA3E0FAA3E0F990F0
:1069CC00000212141CFF90000112141C2FFEE43361
:1069DC0090072DF0A3CEF090000D12141CFF640252
:1069EC006004EFB403047F0180027F00900730EF56
:1069FC00F060047F02804D90072AE0FBA3E0FAA32D
:106A0C00E0F990000B12157145F0600A90072DE02B
:106A1C007002A3E0700E90072FE060047F028002EA
:106A2C007F00802090072AE0FBA3E0FAA3E0F91294
:106A3C001403700E90072FE060047F0180027F002A
:106A4C0080027F0112C6A512CA33EF600E90072F89
:106A5C00E060047F0180067F0080027F0212C68BFB
:0B6A6C00900723E06005E4F012C75320
:016A770022FC
:0DC978004391405392BF43918053927F2220
:10C68B00EF70074391405392BF225391BF439240A7
:0AC69B00EFB40103C29622D29622EA
:10C6A500EF700743918053927F2253917F4392808D
:0AC6B500EFB40103C29722D29722CE
:05AC2B00420B180000BF
:10C78100438E805389F0438901758CA2758A40D20A
:06C79100A9D28CD2AF22F8
:03000B0002C576B5
:10C57600C0E0C083C082758CA2758A40900B19E01A
:10C5860004F07006900B18E004F0D082D083D0E05F
:01C596003272
:10C39D00900B18E0FDA3E09007BECDF0A3EDF0905B
:10C3AD0007BEE0FCA3E0FDC3900B19E09DFD900BD3
:0BC3BD0018E09CFCC3ED9FEC9E40E4E8
:01C3C8002252
:09C9D30053B1EF43B21002CA5A3D
:03CA5700D2B42234
:03CA5A00C2B42241
:109BBA007C0A7D8C1219EBE47BE87A03F9F8121619
:109BCA00B890073112186C900739E4F0A374B1F019
:109BDA007007900739F0A304F0900739E0FEA3E07C
:109BEA00FFC374789F90073CF074039E90073BF084
:109BFA0090073512187800000000900731E0FCA3A6
:109C0A00E0FDA3E0FEA3E0FFA3E0F8A3E0F9A3E0F0
:109C1A00FAA3E0FBC31217575055D2B4E4FFFED3A0
:109C2A0090073AE09F900739E09E4008000FBF0076
:109C3A00010E80EBC2B4E4FEFFD390073CE09F9094
:109C4A00073BE09E4008000FBF00010E80EB900723
:109C5A0035E0FCA3E0FDA3E0FEA3E02401FFE43E1F
:0F9C6A00FEE43DFDE43CFC90073512186C808B46
:019C790022C8
:10C8AF0030313233343536373839414243444546D7
:01C8BF000078
:10C41F00438780538EFE438E4075985053890F4348
:10C42F008920758DF3858D8BD28E53A23F43B10139
:0AC43F0053B2FE53B1FD43B20222D6
:10C6D9008F99E4FFFE20990E0FBF00010ED3EF944E
:08C6E900D0EE940740EFC29966
:01C6F1002226
:10C82C00121403FF600C12C6D9740129F9E43AFA08
:03C83C0080EE2269
:04B59F00AB07AA0646
:10B5A300EB4A70057F3002C6D9E4900744F0D3EB31
:10B5B3009400EA940040357C007D0AAF03AE02128A
:10B5C300148FED2430FF900744E0243EF582E434E9
:10B5D30007F583EFF0900744E004F07C007D0AAFA9
:10B5E30003AE0212148FAA06AB0780C2900744E091
:10B5F300D394004014E014F0E0243EF582E43407D1
:09B60300F583E0FF12C6D980E3D3
:01B60C00221B
:10C50A00AD07EDC4540F7E00540F24AFF582EE340C
:10C51A00C8F583E493FF12C6D9ED540F90C8AF93C0
:04C52A00FF02C6D96D
:0AC9BF007F0D12C6D97F0A02C6D907
:0AC9A900309805C298AF99227F0074
:01C9B3002261
:06BC450090072712186CA5
:10BC4B00E47F04FEFDFC900727E0F8A3E0F9A3E0F6
:10BC5B00FAA3E0FB12162DA804A905AA06AB077FD1
:10BC6B00007E367D6E7C011216B8C3E49FFFE49E06
:10BC7B00538EEF538EF7438E04F5D68FD753AFFB0E
:03BC8B00438E10D5
:01BC8E002293
:10C6170053BAFE759A107F807E257D007C0012BC80
:0EC62700454391015392FE5391FD439202222E
:0DC93200E59A30E006539AFEAF9B227F008D
:01C93F0022D5
:10C5970053BAFD7CFD75AC50ECF5D475D58F53D1EE
:10C5A700F043D10A43C90153CAFE53C9FD43CA0226
:01C5B7002261
:0DC94000E5AC30E00653ACFEAFAD227F0049
:01C94D0022C7
:06BF790090072712186C6E
:10BF7F00E47F04FEFDFC900727E0F8A3E0F9A3E0BF
:10BF8F00FAA3E0FB12162DA804A905AA06AB077F9A
:10BF9F00007E367D6E7C011216B8C3E49FFFE49ECF
:04BFAF00F5D28FD365
:01BFB300226B
:10C5B80053BAFB7CFD758450ECF5D275D38F53D1FB
:10C5C8000F43D1A04393045394FB5393F743940828
:01C5D8002240
:10C653008F85E4FFFEE58420E10E0FBF00010ED3BA
:0BC66300EF94D0EE940740ED5384FDEF
:01C66E0022A9
:0DC94E00E58430E0065384FEAF85227F00B3
:01C95B0022B9
:09C9DC005395BF439640C2A62208
:10C83F004393025394FD75DE0F75BC807F027E001B
:03C84F0002C39D84
:10C09F00EF540F44C0F5BCE4FFFEE5BC20E5130FE1
:10C0AF00BF00010ED3EF9488EE941340ED7EFF7F17
:10C0BF00FF2253BCDFAFBDEF75F010A4FFAEF0E56C
:08C0CF00BEC4540FFDEF4DFF4C
:01C0D7002246
:08AF6E00900735EFF0A3EDF0B0
:10AF7600A312187800000000E490073DF090073611
:10AF8600E0FF90073DE0C39F504C900735E0FF126D
:10AF9600C09F90073BEEF0A3EFF0BEFF08BFFF0592
:10AFA6007EFF7FFF22900737E0F8A3E0F9A3E0FADF
:10AFB600A3E0FBA3E0FEA3E0FFE4FCFDEB2FFFEA2A
:10AFC6003EFEED39FDEC38FC90073712186C900701
:10AFD6003DE004F080A7900736E0FBE4FAF9F8A319
:0EAFE600E0FCA3E0FDA3E0FEA3E0FF1216B81E
:01AFF400223A
:1094F80090073EEFF0A3EDF0A3EBF0A3EAF0A3E9A9
:01950800F072
:109509009007491218780000000074FFF5F0121551
:10951900E1900743E0FBA3E0FAA3E0F9E4F5F012D8
:1095290015E1E490074DF090073FE0FF90074DE00B
:10953900C39F507690073EE0FF12C09FEFF4700280
:10954900EEF4605D900740E0FBA3E0FAA3E0F912B6
:109559001546FDC3EF9DEE95F05006EE8FF01215FE
:10956900E1900743E0FBA3E0FAA3E0F9121546FDF9
:10957900D3EF9DEE95F04006EE8FF01215E19007BE
:1095890049E0F8A3E0F9A3E0FAA3E0FBE4FCFDEB72
:109599002FFFEA3EFEED39FDEC38FC900749121821
:1095A9006C90074DE004F002953090073FE0FBE432
:1095B900FAF9F8900749E0FCA3E0FDA3E0FEA3E077
:1095C900FF1216B8900746E0FBA3E0FAA3E0F9EE14
:0595D9008FF00215E116
:10C8F3007C3B7D921219EBE4FB7A10F9F80216B82F
:08C9E500E4FF000FEFB41EFA9D
:01C9ED002227
:05CA3900D2A502C9E5D1
:05CA3E00C2A502C9E5DC
:05CA4300D2A402C9E5C8
:05CA4800C2A402C9E5D3
:0BC9B400439530439630D2A4D2A52258
:0CC9850012CA4312CA3912CA4802CA3E44
:07C85200AF0312BF49AE075E
:0CC8590012CA4812CA3912CA4302C9E5CB
:0DBF3C00AE07AC0512C985AF06EF25E0FF8A
:02BF4900AE0741
:10BF4B00E4FDEE30E70512CA43800312CA4812CA59
:10BF5B003912CA3EEE25E0FE0DEDB408E512CA43D8
:0DBF6B0012CA39A2A4E433FE12CA3EAF068A
:01BF780022A6
:02C14600AE0742
:10C14800E4FD12CA43E4FCED25E0FD12CA3930A42F
:10C1580004ED4401FD12CA3E0CECB408EAEE600599
:10C1680012CA43800312CA4812CA3912CA3E12CAF6
:03C1780043AF05CD
:01C17B0022A1
:02C86500AE071C
:10C8670012BF40AE0712C859EE70037F01227F0046
:01C87700229E
:0EBBF90090073EEBF0A3EAF0A3E9F0A3EDF015
:10BC0700E4A3F07C08AF0412C865EF6026900741F3
:10BC1700E0FFA3E0FEC39F501A90073EE0FBA3E0BE
:10BC2700FAA3E0F98E82758300EC12145B90074249
:0DBC3700E004F00CECB478CD900742E0FF83
:01BC440022DD
:07BC8F0090074EEDF0AC0739
:10BC960012C985EC25E0FF12BF49EF6002801E90B5
:10BCA600074EE0FF12BF49EF6002801112C985AF4F
:10BCB60004EF25E04401FF12BF49EF600612C859A0
:10BCC6007F00227F0112C146EF12144912C8597F24
:01BCD600016C
:01BCD700224A
:10C4990012BF3CAE07EE6002800AAF0412BF49AE7C
:10C4A90007EE600612C8597F002212C852EE7003C7
:05C4B9007F01227F005D
:01C4BE00225B
:10000E0012BF3CAE07EE60028016AF0412BF49AEBF
:10001E0007EE6002800AAF0312BF49AE07EE60061C
:10002E0012C8597F0022EAFF12C854EE70047F01F5
:04003E0080027F00BD
:01004200229B
:03CA5D0002C865A7
:10B90E00900B04EBF0A3EAF0A3E9F0900B02EFF03A
:03B91E00A3EDF0A6
:10B921007B017A0B790712BC8FEF7002FF22900B1B
:10B9310002E0FFA3E004FD7B017A0B790812BC8FC2
:10B94100EF7002FF22900B08E0FE900B07E0FDED87
:10B95100FF900B04E0FBA3E0FAA3E0F9EE8FF012F5
:04B9610015E17F016C
:01B9650022BF
:10A37A00900733EFF0A3ECF0A3EDF0A3EBF0A3EA20
:04A38A00F0A3E9F063
:10A38E0012C985900733E025E0FF12BF49EF600246
:10A39E00803A900734E0FCA3E0FDD394FFEC9400E8
:10A3AE00400AECFF12BF49EF60028020900734A3F1
:10A3BE00E0FF12BF49EF6002801212C98590073389
:10A3CE00E025E04401FF12BF49EF600612C8597F35
:10A3DE000022E490073AF0900739E0FFA3E0FEC3B5
:10A3EE009F5030C3EF9401B506047F0180027F00B9
:10A3FE0012C146900736E0FBA3E0FAA3E0F99007FE
:10A40E003AE0F582758300EF12145B90073AE00490
:08A41E00F080C412C8597F014F
:01A426002213
:06C1B200AB05AA04AE0774
:10C1B80012BF40AE07EE60028013D3EB94FFEA94FF
:10C1C800004010EAFF12BF49AE07EE600612C859D8
:0EC1D8007F002212C852EE70037F01227F000A
:01C1E6002236
:0DB60D00900738EBF0A3EAF0A3E9F0AE07D8
:10B61A0012C985AF06EF25E04401FF12BF49EF606A
:10B62A000612C8597F0022E490073CF090073BE0DD
:10B63A00FFA3E0FEC39F5030C3EF9401B506047F19
:10B64A000180027F0012C146900738E0FBA3E0FAAE
:10B65A00A3E0F990073CE0F582758300EF12145BD2
:0DB66A0090073CE004F080C412C8597F0135
:01B6770022B0
:10BCD8005391F74392085391DF43922043911053B5
:10BCE80092EF53B3FE43B40153C9FB43CA045393C1
:10BCF800DF4394205393BF43944053C9F743CA0882
:10BD0800D2C0D2CAD285D2CBC2865393EF5394EF16
:09BD180053A2F3E4FDFF02C797FA
:10C79700ED540344D0FEEFB40104EE440CFEAF06A3
:05C7A7008FCE75CDC02E
:01C7AC00226A
:0EC24E007FFF12C25C7FFF12C25CD2CA7FFF6C
:10C25C0075CDC08FCFE4FFFEE5CD20E7110FBF00F9
:10C26C00010ED3EF9488EE941340ED7FFF2275CD31
:03C27C00C0AFCF81
:01C27F00229C
:02C88B00AD07F7
:0FC88D00E4FCECC39D50087FFF12C25C0C80F3EB
:01C89C002279
:10C28000D2CA900B18E0FEA3E0FDAC06E4FBFA7FF7
:10C29000FF12C25C0BBB00010ABA07F3BBD0F0AEC1
:10C2A00004AF05C3900B19E09DFF900B18E09CFEB6
:01C2B000226B
:10C818007D01E4FF12C7974391105392EFD2CAD219
:04C8280085D2CB22C8
:10C70B00AC05AB0712C818C2C0EB547FFF12C25C5A
:08C71B00AF0412C25CD2C0227F
:0DBDB000900745EBF0A3EAF0A3E9F0AC0723
:10BDBD0012C818C2C0EC547F4480FF12C25CE4FD6F
:10BDCD00900748E0FFEDC39F501CE4FF12C25C904A
:10BDDD000745E0FBA3E0FAA3E0F98D82758300EF40
:08BDED0012145B0D80DAD2C0D4
:01BDF500222B
:10C803007B017A0779439007487401F012BDB09019
:04C813000743E0FFF8
:01C8170022FE
:09C9EE003084037F01227F002246
:0EB6E000900B14EBF0A3EAF0A3E9F0A3EDF059
:10B6EE00D2CA7F0A12C88BC2CA7F4012C25CE4FF64
:10B6FE0012C25CE4FF12C25CE4FF12C25CE4FF12F1
:10B70E00C25C7F9512C25CE4FD900B17E0FFEDC3A7
:10B71E009F501C7FFF12C25C900B14E0FBA3E0FA5B
:10B72E00A3E0F98D82758300EF12145B0D80DAD2DF
:06B73E00CA7FFF02C25C9D
:10AB0C00C2CAEF543F4440FF12C25C9007FFE0FC06
:10AB1C00A3E0FDA3E0FEA3E0FF781812176812C2B1
:10AB2C005C9007FFE0FCA3E0FDA3E0FEA3E0FF7850
:10AB3C001012176812C25C9007FFE0FCA3E0FDA3A3
:10AB4C00E0FEA3E0FF780812176812C25C9007FFC2
:10AB5C00A3A3A3E0FF12C25CA3E0FF12C25C7FFFC1
:10AB6C00E4FD900804E0FEEDC39E500C7FFF12C282
:10AB7C005CEF30E7030D80EA900805E0FBA3E0FAF8
:0FAB8C00A3E0F9EF12144930E7037F00227F01A5
:01AB9B002297
:10BDF600C0079007BFE0FCA3E0FDA3E0FEA3E0FFC1
:10BE06009007FF12186C9007C3E0900803F0A37424
:10BE160008F0A37401F0A37407F0A374C4F0D0076C
:10BE260012AB0CAD0712C258AF05EF70037FFF22AD
:05BE36009007C4E0FFCD
:01BE3B0022E4
:10AFF500C0079007BFE0FCA3E0FDA3E0FEA3E0FFD0
:10B005009007FF12186C9007C3E0900803F09007B3
:10B01500C4E0900804F09007C5E0F9A3E0FAA3E0C6
:10B02500900805C9F0A3EAF0A3E9F0D00712AB0C2C
:10B03500EF700612C2587F0022E49007C9F090070E
:10B04500C8E0FFA3E0C39F50277FFF12C25CE02446
:10B0550001FDE433FC9007C5E0FBA3E0FAA3E0F9AA
:10B065008D828C83EF12145B9007C9E004F080CECB
:05B0750012C2587F012A
:01B07A0022B3
:04C3C900AD07AC060A
:10C3CD00E4FBFAC3EB9DEA9C501A7FFF12C25CEFAF
:10C3DD00B4FE037F0122EFF460037F00220BBB004C
:06C3ED00010A80DF7F0061
:01C3F3002227
:0BB449009007BEEBF0A3EAF0A3E9F0CF
:10B45400C0079007FF1218780000000090080374DA
:10B4640001F0A37408F0A37401F0A37407F0A374AB
:10B47400C1F0D00712AB0CEF60129007C1E060027C
:10B48400800A7F607EEA12C3C9EF700612C2587F39
:10B494000022E4FD7FFF12C25C9007BEE0FBA3E044
:10B4A400FAA3E0F98D82758300EF12145B0DEDB4FD
:07B4B40010E212C24E7F01FD
:01B4BB00226E
:10C21B009007FE12186C900AB8E0600F9007FEE0D2
:10C22B00FCA3E0FDA3E0FEA3E0FF22E4FF7E02FD02
:10C23B00FC9007FEE0F8A3E0F9A3E0FAA3E0FB1201
:03C24B00162D228B
:1064360012C9EEEF60037F01227D02E4FF12C797C7
:10644600D2CA7F0A12C88B9007BF121878000000C4
:10645600009007C37495F0E4FF12BDF69007B9EFFC
:10646600F0640160037F02229007BF1218780000D3
:1064760001AA9007C37487F07F0812BDF69007B98A
:1064860074FFF0E49007B8F09007BF121878000088
:1064960000009007C37401F07F3712BDF69007BF66
:1064A600121878400000009007C37401F07F29128B
:1064B600BDF69007B9EFF060137F0A7E0012C39D08
:1064C6009007B8E004F0E0C3946440BC9007B9E0DC
:1064D60060037F04229007BF121878000000009026
:1064E60007C37401F0A37408F0A37401F0A3740A3F
:1064F600F0A374A8F0A37404F07F3A12AFF5EF701E
:10650600037F0522900AA9E030E6047F0180027F1E
:1065160000900AB8EFF07B017A0A79A87F0912B4D5
:1065260049EF70037F0522900AA8E0C413135403B1
:1065360060030265CE900AADE0540FFBA3E054035E
:1065460025E025E0FCA3E075F004A4FFEC45F0FE91
:10655600A3E0C413135403FDEF4DFFA3E05403253A
:10656600E0FDA3E0C413131354014DFAEF2401FF19
:10657600E43EFEE4FCFD9007BA12186CEA24029091
:1065860007B8F0EBC394094009EB24F7FFE02FF0BE
:10659600801D9007BAE0FCA3E0FDA3E0FEA3E0FFA8
:1065A600C374099BF9F81217689007BA12186C9011
:1065B60007BAE0FCA3E0FDA3E0FEA3E0FF9007B866
:1065C600E0F9F812177B806E900AAFE0543FFFE4C3
:1065D600FCFDFE781012177BC004C005C006C0077C
:1065E600A3E0FFE4FCFDFE780812177BD003D0027F
:1065F600D001D000EB4FFBEA4EFAE94DF9E84CF832
:10660600A3E0FFEB4FFFEAFEE9FDE8FCEF2401FF04
:10661600E43EFEE43DFDE43CFC9007BA12186C90A3
:1066260007BAE0FCA3E0FDA3E0FEA3E0FFE4FB7AEB
:1066360004F9F812162D9007BA12186C9007BAE0F2
:10664600FCA3E0FDA3E0FEA3E0FF900AA412186CF1
:106656009007BF121878000002009007C37401F07B
:0D6666007F1012BDF6E4FDFF12C7977F0004
:016673002204
:06A8B1009007EF12186C85
:10A8B700E4FDFF12C7979007EFE0FCA3E0FDA3E0DC
:10A8C700FEA3E0FF12C21B9007FF12186C9008034B
:10A8D7007401F0A37408F0A37401F0A37407F0A344
:10A8E70074F5F07F1112AB0CEF60069007F5E0608E
:10A8F7000612C2587F01227F607EEA12C3C9EF7039
:10A907000612C2587F0222E49007F6F0A3F07FFFF9
:10A9170012C25C9007F6E0FCA3E0FD9007F3E0FAB3
:10A92700A3E02DF582EA3CF583EFF09007F7E0040A
:10A93700F070069007F6E004F0C39007F6E0940283
:07A9470040CC12C24E7F005C
:01A94E0022E6
:1099430012C21B9007FF12186C9008037401F0A356
:109953007408F0A37401F0A37407F0A374F9F07F03
:109963001812AB0CEF60069007F9E0600612C258BC
:109973007F01227FFF12C25C7FFE12C25CE4FDFC0A
:109983009007F7E0FEA3E02DF582EE3CF583E0FFC0
:1099930012C25C0DBD00010CE4B505E4ECB402E0B9
:1099A3007FFF12C25C7FFF12C25C7FFF12C25CEFBB
:1099B300541F6405600612C2587F02229007FA12F0
:1099C3001878000000007FFF12C25CEF704190071F
:1099D300FAE0FCA3E0FDA3E0FEA3E02401FFE43EE4
:1099E300FEE43DFDE43CFC9007FA12186C7F407ED8
:1099F3000D7D037C009007FAE0F8A3E0F9A3E0FAF9
:109A0300A3E0FBD312175740BD12C2587F032212A3
:049A1300C2587F00B6
:019A1700222C
:10BBA9003E5149453E00000000427F400000000030
:10BBB90042615149460000002141454B31000000D6
:10BBC9001814127F10000000274545453900000070
:10BBD9003C4A494930000000017109050300000091
:10BBE9003649494936000000064949291E00000026
:04C95C00EF24B0FF15
:0AC96000C285C28612C25CD2852295
:0CC7AD0074C32FF582E43409F583E0FF2B
:0AC7B900C285D28612C25CD285222E
:10A170005393DF4394205393BF43944053C9F74311
:10A18000CA08D285D286D2CB7FAE12C960E4FF1254
:10A19000C9607F1012C9607F4012C9607F8112C9F7
:10A1A000607FCF12C9607FA012C9607FC012C960F2
:10A1B0007FA612C9607FA812C9607F3F12C9607F65
:10A1C000D312C960E4FF12C9607FD512C9607F80D5
:10A1D00012C9607FD912C9607FF112C9607FDA129B
:10A1E000C9607F1212C9607FDB12C9607F4012C94B
:10A1F000607F2012C9607F0212C9607F8D12C96022
:10A200007F1412C9607FA412C9607FA612C96012B0
:0EA21000BFB47FAF12C9607F327E0002C39DD3
:0BBB070090073AEFF0A3EDF0A3EBF085
:10BB1200E490073FF090073DE0FF90073FE0FEC34F
:10BB22009F503290073AE02E12C4E7E4900740F0AB
:10BB320090073CE0FF900740E0C39F501090073E03
:10BB4200E0FF12C7B9900740E004F080E390073F9E
:05BB5200E004F080C0DA
:01BB570022CB
:10BFB400E4900741F0900741E0FFC39408502B122E
:10BFC400C95CE4FF12C9607F1012C960E4900742A3
:10BFD400F0E4FF12C7B9900742E004F0E0C3948094
:0ABFE40040EF900741E004F080CB2D
:01BFEE002230
:05BE7E00900740EFF009
:10BE8300E4A3F0900741E0FFC39408502E12C95C6D
:10BE9300E4FF12C9607F1012C960E4900742F0907A
:10BEA3000740E0FF12C7B9900742E004F0E0C394F3
:0BBEB3008040EC900741E004F080C8E4
:01BEBE002261
:109A18007FFF12BE7E7F207E0312C39DE4FF12BE2D
:109A28007E7F207E0312C39DE490073EF090073EA0
:109A3800E0FFC39408504312C95CE4FF12C9607F79
:109A48001012C960E490073FF090073FE0FFC3940D
:109A580080501FEF1313543FFF90073EE06F30E034
:109A6800047F0F80027FF012C7B990073FE004F02F
:109A780080D790073EE004F080B37F207E0312C3B6
:109A88009DE4FF12BE7EE490073EF090073EE0FFA3
:109A9800C39408504612C95CE4FF12C9607F1012D3
:109AA800C960E490073FF090073FE0FFC3948050FF
:109AB8002290073EE0FE600A64076006EF6003B488
:109AC8007F047FFF80027F8112C7B990073FE004BF
:109AD800F080D490073EE004F080B07F207E03023F
:029AE800C39D1C
:05B52E0090073EEFF064
:10B5330012BFB47FB012C960E4FF12C9607F10125A
:10B54300C960E490073FF090073EE0FFA3E0FED31D
:10B553009F5048EE94095043E4A3F0900740E0FF66
:10B56300C39408502990073FE075F008A424A9F577
:10B5730082E434BBF583E5822FF582E43583F583DA
:10B58300E493FF12C7B9900740E004F080CDE4FFD5
:0BB5930012C7B990073FE004F080AC45
:01B59E00228A
:06C4E500E004FFA3E0FDEE
:10C4EB0090074AEDF012C95C90074AE0540FFF1217
:0FC4FB00C96090074AE0C4540F4410FF02C960A3
:08B74400900743EFF0A3EDF0C4
:10B74C00AF0312BFEF7B017A0979C39007517410D4
:10B75C00F012B3D5900743E012C4E7E4900745F02C
:10B76C00900745E0FFC39408500B12C7AD900745F6
:10B77C00E004F080EB90074312C4E5900745740891
:10B78C00F0900745E0FFC39410500B12C7AD900723
:06B79C0045E004F080EB23
:01B7A2002284
:08A76F00900741EFF0A3EDF0AB
:10A77700AF03900744E0FD12923690074612186C1B
:10A78700E4FFFEFDFC900746E0F8A3E0F9A3E0FA3A
:10A79700A3E0FBC3121757606F900746E0FCA3E0E6
:10A7A700FDA3E0FEA3E0FF7B017A0979D39007516F
:10A7B7007420F012B3D5900741E012C4E7E4900784
:10A7C70045F0900745E0FFC39410501374D32FF55D
:10A7D70082E4340912C7B5900745E004F080E3909E
:10A7E700074112C4E59007457410F0900745E0FF54
:10A7F700C39420501374D32FF582E4340912C7B5DC
:08A80700900745E004F080E336
:01A80F002226
:10A6CB0090073CEFF0A3EDF0A3EBF0A3EAF0A3E9C6
:10A6DB00F090073EE0FBA3E0FAA3E0F9121403703D
:10A6EB000302A76EC39480403C90073DE0FDD394DA
:10A6FB0070507090073CE0FF121403FBC0039007EF
:10A70B003EE0FB90000112141C900744F0D00312A2
:10A71B00A76F90073FE475F00212151A90073DE002
:10A72B002410F0803290073DE0FDD39478503490A4
:10A73B00073CE0FF90073EE0FBA3E0FAA3E0F91231
:10A74B001403FB12B74490073FE475F00112151A7E
:10A75B0090073DE02408F090073DE0D39478500338
:04A76B0002A6DC2244
:0EA94F0090073EEFF0A3EDF0A3EAF0A3EBF0CB
:10A95D004A700D90073EE0FFA3E0FD7B3002B74447
:10A96D00E4FB900740E0FEA3E0FFD39400EE9400DB
:10A97D0040317C007D0A12148FED2430FF74F32BCF
:10A98D00F582E43409F583EFF00B900740E0FEA368
:10A99D00E0FF7C007D0A12148F900740EEF0A3EFCC
:10A9AD00F080BF900742EBF0900742E0FED3940099
:10A9BD00402690073EE0FFA3E0FD74F22EF582E401
:10A9CD003409F583E0FB12B74490073FE02408F00B
:08A9DD00900742E014F080D065
:01A9E500224F
:09C9F70053C9F743CA08D2CB2250
:10C3F40090074AE0FCA3E0FDA3E0FEA3E0FF1217D0
:01C4040068CF
:10C40500E4FEC295EF30E704D2938002C293EF2594
:09C41500E0FFD2950EEEB408E937
:01C41E0022FB
:10C76A00E4FFFEC295EF25E0FF3094034401FFD2B7
:06C77A00950EEEB408ED7F
:01C780002296
:10B3D50090074A12186C90074EEBF0A3EAF0A3E928
:01B3E500F077
:10B3E60053CEBF5391F74392085391DF43922053B4
:10B3F60091EF5392EFC295D293C2CB7F0312C4054D
:10B40600781012C3F4780812C3F490074AA3A3A3D2
:10B41600E0FF12C405E4FD900751E0FFEDC39F5025
:10B426001A12C76A90074EE0FBA3E0FAA3E0F98D73
:10B4360082758300EF12145B0D80DCD2CBC295437C
:02B44600CE40F6
:01B4480022E1
:10BFEF00EFC394204006EFD3947E40097FC07EB705
:10BFFF007D037C0022EF24E0FFE434FFFE3395E065
:10C00F00FDFCE47B10FAF9F812162DEF24C0FFEEB9
:0BC01F0034B7FEED3403FDE43CFC22CE
:1092360090074BEDF090074AEFF0BFA91DA3E0FFA2
:10924600C394A14015EF245FFFE434FFCF241ACF67
:109256003401FE7C007D200219EB90074AE0FFC333
:1092660094A1404AEFD394A35044A3E0C394A140F1
:109276003D90074AE0245FFFE434FFFE3395E0FDAE
:10928600FCE47B5EFAF9F812162DA804A905AA06D5
:10929600AB0790074BE0245FFFE434FFFE3395E015
:1092A600FDFCEB2FFFEA3EFEE93DFDE880609007FE
:1092B6004AE0FFC394B04061EFD394F7505BA3E05C
:1092C600C394A1405490074AE02450FFE434FFFEC3
:1092D6003395E0FDFCE47B5EFAF9F812162DA8043E
:1092E600A905AA06AB0790074BE0245FFFE434FF0D
:1092F600FE3395E0FDFCEB2FFFEA3EFEE93DFDE87F
:109306003CFCEF244EFFEE3403FEE43DFDE43CFC62
:0F931600E47B20FAF9F802162DE4FFFEFDFC229D
:05AC3000420A9C000A2D
:10C44900EF1460101460162402701B20A7037F01EB
:10C45900227F002220C6037F01227F002220800341
:09C469007F01227F00227F0022E6
:10C52E00900AA3E0FE045403FD900AA2E06D60138E
:10C53E00749E2EF582E4340AF583EFF0AF05900A6F
:03C54E00A3EFF068
:01C5510022C7
:10C90300EF70037F0122EFB401037F03227F05222F
:10C91300EF70037F0222EFB401037F04227F06221C
:10B3600053957F53967F53B3BF53B4BF5393FE534C
:10B3700094FEE4FFEF75F006A4248AF582E4340A13
:10B38000F583E4F0EF75F006A4248BF582E4340A2B
:10B39000F583E4F0EF75F006A4248CF582E4340A1A
:10B3A000F583E4F0EF75F006A4248DF582E4340A09
:10B3B000F583E4F0A3F0EF75F006A4248FF582E4A2
:10B3C000340AF583E4F00FEFB403A9E4900AA3F084
:04B3D000900AA2F04D
:01B3D4002256
:10C0D800900B18E0FEA3E0FF900A88E0FCA3E0FDC7
:10C0E800C3EF9DFDEE9CFC900A88EEF0A3EFF0D321
:10C0F800ED94C8EC940040047C007DC8AF05900A1C
:06C108009CECF0A3EFF037
:01C10E00220E
:107E710012C0D8E4FCAF0412C449EC75F006A42486
:107E81008AF582E4340AF583E06F6023EC75F0062D
:107E9100A4248AF582E4340AF583EFF0EC75F00648
:107EA100A4248CF582E4340AF583E4F0027FDBEC50
:107EB10075F006A4248CF582E4340AF583E0C394BA
:107EC100025028EC75F006A4248CF582E4340AF5FE
:107ED10083E004F0EC75F006A4248CF582E4340A06
:107EE100F583E0C394025003027FDBEC75F006A436
:107EF100248BF582E4340AF583E06F6050EC75F071
:107F010006A4248BF582E4340AF583EFF0B401244E
:107F1100EC75F006A4248DF582E4340AF583E4F0CF
:107F2100A3F0EC75F006A4248FF582E4340AF583FE
:107F3100E4F08019EC75F006A4248FF582E4340A8C
:107F4100F583E07008AF0412C90312C52EEC75F079
:107F510006A4248BF582E4340AF583E06401707A87
:107F6100EC75F006A4248DF582E4340AF583E0FE75
:107F7100A3E0C394FFEE94FF501C900A9CE0FEA383
:107F8100E0FFEC75F006A4248DF582E4340AF58354
:107F9100EE8FF012151AEC75F006A4248FF582E429
:107FA100340AF583E07033EC75F006A4248DF58274
:107FB100E4340AF583E0FEA3E0C394E8EE940340C1
:107FC10019EC75F006A4248FF582E4340AF5837464
:107FD10001F0AF0412C91312C52E0CEC6403600347
:037FE100027E76A7
:017FE400227A
:10C47200900AA3E0FF900AA2E0FEB507037F002224
:10C48200749E2EF582E4340AF583E0FDEE04540333
:06C49200900AA2F0AF05C4
:01C498002281
:0CC9910000030205000305010406020477
:05C72300F912141CFFD7
:10C72800EF75F00A84C454F0FEEF75F00A84E5F062
:03C738004EFF228F
:0FC92300EFC4540F75F00AA4FEEF540F2EFF223D
:10C8C000E4FBFD7F5112C499E4FB7D017F5102C45A
:01C8D00099CE
:10C6F200AD077B017A07794D7F5112BC8FEF700332
:08C702007FFF2290074DE0FFCC
:01C70A00220C
:0B8F550090074AEBF0A3EAF0A3E9F05C
:108F60007F0212C6F2EFB4FF037F0022EF30E70466
:108F70007E0080027E0190074AE0FBA3E0FAA3E0B6
:108F8000F9900007EE12145BEF547FFF12C9239093
:108F9000074AE0FBA3E0FAA3E0F9900005EF121402
:108FA0005B7F0312C6F2EF547FFF12C92390074A7A
:108FB000E0FBA3E0FAA3E0F9900004EF12145B7F5A
:108FC0000412C6F2EF543FFF12C92390074AE0FB98
:108FD000A3E0FAA3E0F9900003EF12145B7F0512FF
:108FE000C6F2EF543FFF12C92390074AE0FBA3E00B
:108FF000FAA3E0F9900002EF12145B7F0612C6F2AA
:10900000EF5407FF90074AE0FBA3E0FAA3E0F990D2
:109010000006EF12145B7F0712C6F2EF541FFF1217
:10902000C92390074AE0FBA3E0FAA3E0F99000010E
:10903000EF12145B7F0812C6F212C92390074AE0B0
:0D904000FBA3E0FAA3E0F9EF1214497F0151
:01904D002200
:0AACBA0090073FEBF090073EEDF02D
:10ACC400EF24D0FEE43407900740F0A3CEF0EDC3A8
:10ACD4009403500BE024FFF0900740E034FFF09021
:10ACE4000740E0FCA3E0FDAE047802CEC313CE130C
:10ACF400D8F92DFBEC3EFA900740E0FEA3E0FF7C80
:10AD0400007D6412148FC3EB9FFBEA9EFA90074008
:10AD1400E0FEA3E0FF7C017D9012148FEF2BFFEE89
:10AD24003AFE90073EE090C990937C002FFFEC3EE2
:10AD3400FE90073FE02FFFEC3EFE7D0712148FAF1D
:01AD44000509
:01AD450022EB
:1097960090073BEBF0A3EAF0A3E9F0E4FBFD7F5171
:1097A60012C49990073BE0FBA3E0FAA3E090000502
:1097B60012C723AB077D027F5112C49990073BE085
:1097C600FBA3E0FAA3E090000412C723AB077D03D6
:1097D6007F5112C49990073BE0FBA3E0FAA3E0F99E
:1097E60090000312C724AB077D047F5112C49990E1
:1097F600073BE0FBA3E0FAA3E0F990000212C724BE
:10980600AB077D057F5112C49990073BE0FBA3E0AF
:10981600FAA3E0F9121403FF90000112141CFD9044
:10982600000212141CFB12ACBAAB077D067F511264
:10983600C49990073BE0FBA3E0FAA3E0F99000018E
:1098460012C724AB077D077F5112C49990073BE0EE
:10985600FBA3E0FAA3E0F9121403FF12C728AB0733
:079866007D087F5102C49947
:0CC99D001F1C1F1E1F1E1F1F1E1F1E1F21
:0300430002BB58A5
:0DBB5800C0E0C083C082C0D075D000C0071F
:10BB6500E59A30E02C539AFE90086DE004FFC394EB
:10BB75004040027F0090086FE06F601590086DE00F
:10BB85002421F582E43408F583E59BF090086DEFF8
:09BB9500F0E59A30E103539AFD3A
:0BBB9E00D007D0D0D082D083D0E0329E
:10C2B10090086FE0FF90086DE0B507037F002290C2
:10C2C100086FE02421F582E43408F583E012144973
:10C2D10090086FE004F0E0C394404002E4F07F0175
:01C2E100223A
:10C1E700AB07AA06EB540360037F00227C007D6443
:10C1F700AF03AE0212148FED4C60037F0122AE0233
:10C20700AF037C017D9012148FED4C70047F018089
:04C21700027F002280
:0EA4D4007B017A087961900739740CF07F03E0
:0BA4E200900736EBF0A3EAF0A3E9F0CE
:10A4ED00E4FEFD74702DF582E43408F583E0601A06
:10A4FD00642A6016EE6F601274702DF582E43408D4
:10A50D00F583E0B42C010E0D80D9EE6F60037FFF53
:10A51D0022E4FF74702DF582E43408F583E0FE60CB
:10A52D003A642C6036EE642A6031900739E0C394AA
:10A53D0001FEEFC39E502474702DF582E43408F5AE
:10A54D0083E0FE900736E0FBA3E0FAA3E0F98F82EB
:10A55D00758300EE12145B0F0D80B8900736E0FB8B
:0FA56D00A3E0FAA3E0F98F82758300E412145B78
:01A57C0022BC
:08B0FB007A0879617B017D02F6
:0EB10300900735EBF0A3EAF0A3E9F0A3EDF01E
:10B11100E4A3F0A3F0A3F0900738E0FF90073BE031
:10B12100FEC39F504A900735E0FBA3E0FAA3E0F984
:10B131008E8275830012141CFFC394304031EFD30B
:10B141009439502BEF24D0FFE434FFAB07FA90077A
:10B1510039E0FEA3E0FF7C007D0A12147DEF2BFF96
:10B16100EE3A900739F0A3EFF0A3E004F080A89045
:07B171000739E0FEA3E0FF37
:01B1780022B4
:066C5C007B017A0879615A
:0E6C6200900735EBF0A3EAF0A3E9F0A3EDF004
:106C7000E490073FF0A3F0900747F0900738E0FF5B
:106C8000900747E0FEC39F503F900735E0FBA3E02D
:106C9000FAA3E0F98E8275830012141C24D0FFE45D
:106CA00034FFAB07FA90073FE0FEA3E0FF7C007DD6
:106CB0000A12147DEF2BFFEE3A90073FF0A3EFF09E
:106CC000900747E004F080B3900735E0FBA3E0FABB
:106CD000A3E0F9900747E0F58275830012141C24A5
:106CE000D0FFE434FFFE7C007D0A12147D9007473C
:106CF000E0F5828C83A312141C24D0FDEC34FFFC3D
:106D0000EF2DFFEE3C900741F0A3EFF0900747E036
:106D10002402F0E0F58275830012141CB42E069054
:106D20000747E004F090074312187800000000E4E1
:106D3000900748F0900748E0FFC394044003026DB9
:106D4000CE900747E02FFFE433FE900735E0FBA32A
:106D5000E0FAA3E0F98F828E8312141C900749F0A9
:106D6000C394304043E0D39439503DE47F0AFEFDA4
:106D7000FC900743E0F8A3E0F9A3E0FAA3E0FB12DC
:106D8000162DA804A905AA06AB07900749E024D050
:106D9000FFE434FFFE3395E0FDFCEB2FFFEA3EFEFF
:106DA000E93DFDE83CFC8017900743E0FCA3E0FDD3
:106DB000A3E0FEA3E0FFE47B0AFAF9F812162D9097
:106DC000074312186C900748E004F0026D349007F6
:106DD00041E0FEA3E0FF7C277D101219EBA3E0F851
:106DE000A3E0F9A3E0FAA3E02FFFEA3EFEE93DFDB0
:106DF000E83CFC90074312186C90073FE0F9A3E0D1
:106E0000FF900739E0FBA3E0FAA3E0C98FF0121569
:106E1000E1E47B3CFAF9F8900743E0FCA3E0FDA332
:106E2000E0FEA3E0FF1216B890073CE0FBA3E0FAF7
:096E3000A3E0F9EE8FF00215E178
:10C63500900732E0FBA3E0FAA3E0F990000312149F
:04C645001CFF7D4712
:0AC64900EFB505037F01227F0022F8
:0B47B100900732EBF0A3EAF0A3E9F060
:1047BC0012140364246003024CB9900815E004F051
:1047CC007006900814E004F0900732E0FBA3E0FAC6
:1047DC00A3E0F990000312141C6454600302491402
:1047EC0090000412141C64586003024914900005D4
:1047FC0012141C64546003024914FF900732E0FB4E
:10480C00A3E0FAA3E0F98F8275830012141CFE70EA
:10481C0003024CB964416003024910EF2401FDE42A
:10482C0033FC8D828C8312141C644E60030249107D
:10483C00EFF582758300A3A312141C645460030269
:10484C004910EF2403FDE433FC8D828C8312141C7D
:10485C0064456003024910EF2404F582E433F583C8
:10486C0012141C644E6003024910EF2405FDE4335E
:10487C00FC8D828C8312141C644E6003024910EF71
:10488C002406F582E433F58312141C64417075EF31
:10489C002408FDE433FC8D828C8312141CFEB44F6F
:1048AC0015EF2409F582E433F58312141CB44B067E
:1048BC00900816024CB6EEB44F23EF2409FDE433F6
:1048CC00FC900732E0FBA3E0FAA3E0F98D828C8325
:1048DC0012141CB450079008167402F022EF24082E
:1048EC00FDE433FC900732E0FBA3E0FAA3E0F98D82
:1048FC00828C8312141C64536003024CB99008160A
:10490C007403F0220F024807900732E0FBA3E0FA91
:10491C00A3E0F990000312141CFF7D5212C649EF5C
:10492C007003024AB9900732E0FBA3E0FAA3E0F966
:10493C0090000412141CFF7D4D12C649EF70030247
:10494C004AB9900732E0FBA3E0FAA3E0F990000526
:10495C0012141CFF7D4312C649EF7003024AB99032
:10496C00086EE090080BF0E490086EF012A4D4EFFF
:10497C00C39404401F9007397401F0A37408F0A38A
:10498C007419F0A37401F0A37408F0A3741BF07DE8
:10499C0002126C5C7B017A0879619007397402F021
:1049AC007F0412A4E2BF0108900861E0900817F0A0
:1049BC007B017A087961900739740CF07F0512A499
:1049CC00E2EFC39405401F9007397401F0A37408FB
:1049DC00F0A3741DF0A37401F0A37408F0A3741F6A
:1049EC00F07D03126C5C7B017A0879619007397455
:1049FC0002F07F0612A4E2BF0108900861E0900863
:104A0C0018F07B017A087961900739740CF07F02F9
:104A1C0012A4E2EF64016003024CB9900861E064F7
:104A2C00416003024CB990080904F0FB7A087961E3
:104A3C00900739740CF07F0912A4E2EF640660034E
:104A4C00024CB912B0FB90080EEFF07A08796312A1
:104A5C00B0FF90080DEFF07B017A0879657D0212AA
:104A6C00B10390080CEFF07B017A0879619007395B
:104A7C00740CF07F0112A4E2EFC394065003024CB5
:104A8C00B912B0FB90080FEFF07B017A0879637DC7
:104A9C000212B103900810EFF07B017A0879657D62
:104AAC000212B103900811EFF0A3024CB612C635F6
:104ABC00EF7003024B41900732E0FBA3E0FAA3E056
:104ACC00F990000412141CFF12C649EF606790079E
:104ADC0032E0FBA3E0FAA3E0F990000512141CFFEE
:104AEC007D4112C649EF604D7B017A0879619007D0
:104AFC0039740CF07F0612A4E2BF0116900861E035
:104B0C00FFC39431400CEFD39439500690080974CC
:104B1C0001F07B017A087961900739740CF07F07FA
:104B2C0012A4E2EFC394015003024CB912B0FB90F3
:104B3C00080AEFF02212C635EF606E900732E0FBE8
:104B4C00A3E0FAA3E0F990000412141CFF7D5312A9
:104B5C00C649EF6054900732E0FBA3E0FAA3E0F9FA
:104B6C0090000512141CFF7D5612C649EF603A7B6B
:104B7C00017A087961900739740CF07F0212A4E273
:104B8C00EF64016003024CB9900861E0643160038A
:104B9C00024CB912A4D4EFC394015003024CB912C5
:104BAC00B0FB90086EE02FF022900732E0FBA3E000
:104BBC00FAA3E0F990000312141CFF7D5A12C649A7
:104BCC00EF7003024CB9900732E0FBA3E0FAA3E0CC
:104BDC00F990000412141CFF7D4412C649EF7003B7
:104BEC00024CB9900732E0FBA3E0FAA3E0F9900085
:104BFC000512141CFF7D4112C649EF7003024CB91B
:104C0C007B017A087961900739740CF07F0412A447
:104C1C00E2EF64046003024CB97B017A0879617D90
:104C2C000412B103C3EF94D0EE94075003024CB9B5
:104C3C00D3EF9433EE94085074EF243090080CF0BA
:104C4C007B017A087961900739740CF07F0212A409
:104C5C00E2BF020812B0FB90080EEFF012A4D4BF12
:104C6C00020812B0FB90080DEFF07B017A08796115
:104C7C00900739740CF07F0112A4E2EFC394064044
:104C8C002C12B0FB90080FEFF07B017A0879637D52
:104C9C000212B103900810EFF07B017A0879657D60
:0D4CAC000212B103900811EFF0A37401F0A3
:014CB90022D8
:10B7A300E4900809F0A3F0A3F0A3F0A3F0A3F0A39F
:10B7B300F0A3F0A3F0A3F0A3F0A3F0A3F0A3F0A3EE
:10B7C300F0A3F0A3F0A3F0A3F0A3F0A3F0A3F0A3DE
:10B7D300F0A3F0900808F090086EF090086DF090D8
:10B7E300086FF07F64900870E4F0A3DFFC12C617C3
:0EB7F3007F007EC27D017C0012BC4543AF0189
:01B801002224
:10B802007B017A07793112C2B1EF604D900731E0C6
:10B81200B40A18900808E02470F582E43408F5832D
:10B82200E4F07A0879701247B18027900731E0FF7F
:10B83200640D60CC900808E0FEC3946350147470E9
:10B842002EF582E43408F583EFF0900808E004F066
:09B8520080AEE4900808F080A724
:01B85B0022CA
:07CA09007B017A0879092284
:108C6400900812E06004A3E060037F002290080DE6
:108C7400E0FFC39401401BEFD3940C5015A3E0FF15
:108C8400C39401400DEFD3941F5007A3E0FB941746
:108C940040037F002290080CE024D0FEE4340790C7
:108CA4000739F0A3CEF090080DE0900732F0900859
:108CB4000EE0900733F0EB2408A3F0900810E09046
:108CC4000735F0900811E0900736F0900734E0C3C0
:108CD40094184050E024E8F0900733E004F0900743
:108CE40032E0FF90C99C93F9EFB40210900739E089
:108CF400FEA3E0FF12C1E7EF6002791D900733E0A5
:108D0400D39940207401F0900732E004F0E0D3944A
:108D14000C40117401F090073AE004F070069007DB
:108D240039E004F0900739E0FEA3E0FF7C007D64A5
:108D340012148FAF05900731EFF0A3E0FDA3E0FB21
:108D440012ACBA900737EFF0A37401F0FB7A0779FD
:0B8D5400311297969008137401F0FF95
:018D5F0022F1
:10C8D10012C83FE4900B0FF0A3F0A3F0A3F0A3F074
:01C8E1002234
:108E5B007D107F0912AF6EBEFF09BFFF06E4900BBA
:108E6B0013F02212C8F390073112186C900731A33C
:108E7B00A3E0FFA3E0900B0FCFF0A3EFF0900B1349
:108E8B007401F0E47F287E23FDFC900731E0F8A30A
:108E9B00E0F9A3E0FAA3E0FBD31217575007E490D5
:108EAB000B11F08057E47F387E31FDFC900731E0E9
:108EBB00F8A3E0F9A3E0FAA3E0FBC31217574008AD
:108ECB00900B117464F08034900731E0FCA3E0FD4B
:108EDB00A3E0FEA3E024D8FFEE34DCFEED34FFFD6F
:108EEB00EC34FFFCE47B64FAF9F812162DE47B10EA
:108EFB007A0EF9F81216B8900B11EFF0E47F287E7A
:108F0B0023FDFC900731E0F8A3E0F9A3E0FAA3E01E
:108F1B00FBC31217575006E4900B12F022900B1163
:108F2B00E0FFC3944C4005A37404F022EFC39433C9
:108F3B004007900B127403F022EFC3941A900B129C
:098F4B0040047402F0227401F0EC
:018F540022FA
:07CA10007B017A0B790F2274
:0AC9C9002794254A231C21081F0DA6
:08BA11007A0A79167B017D021F
:0EBA1900900737EBF0A3EAF0A3E9F0A3EDF0FD
:10BA27007FFFE4FE90073AE0FDEEC39D502E90079E
:10BA370037E0FBA3E0FAA3E0F98E827583001214C6
:10BA47001C6FFFE4FDEF30E70725E06431FF80045A
:0CBA5700EF25E0FF0DEDB408EC0E80C8F8
:01BA630022C0
:108741007F4412CA5DEF700280447DFD7C007F444E
:1087510012C1B2EF700280367F0C7E0012C39D7B86
:10876100017A0A791690073B7406F07F4412B60D20
:10877100EF7002801912BA11900A18E0B5070E7A4B
:108781000A791912BA15900A1BE06F6006E4900984
:10879100F8F022900A16E0FEA3E0FDEDFFE4FCFDF7
:1087A10090073112186CE47FD67E06FDFC900731EC
:1087B100E0F8A3E0F9A3E0FAA3E0FB12162DE47BB5
:1087C100FF7AFFF9F81216B8EF243EFFEE34FE905F
:1087D10009F9F0A3EFF0900A19E0FEA3E0FDEDFF27
:0987E100E4FCFD90073112186C54
:1087EA00E47FE27E04FDFC900731E0F8A3E0F9A300
:1087FA00E0FAA3E0FB12162DE47BFF7AFFF9F812E8
:10880A0016B8EF24C4FFEE34FFFE900735F0A3EF4D
:10881A00F0C3EE648094805007E4900735F0A3F02B
:10882A00D3900736E094E8900735E064809483405B
:10883A00077403F0A374E8F0900735E0FFA3E09013
:07884A0009FBCFF0A3EFF0E2
:068851009009F87401F02B
:0188570022FE
:10BE3C007F1012CA5DEF700280187B017A0779318E
:10BE4C009007397402F07D047C007F1012A37AEF06
:10BE5C007005900A04F022900732E0FE900731E062
:10BE6C00FDEDFF900A05EEF0A3EFF0900A047401CB
:01BE7C00F0D5
:01BE7D0022A2
:109EA7007F0C12CA5DEF7003029F3B7B017D0A7F27
:109EB7000C12C499EF7002807B7F0A7E0012C39D4B
:109EC7007B017A0779319007397402F07D037C00B2
:109ED7007F0C12A37AEF7002805A900732E0FE904F
:109EE7000731E0FDEDFF900A08EEF0A3EFF07B01EC
:109EF7007A0779319007397402F07D057C007F0C71
:109F070012A37AEF7002802C900732E0FE9007319F
:109F1700E0FDEDFF900A0AEEF0A3EFF07B017A0770
:109F270079319007397402F07D077C007F0C12A30A
:109F37007AEF7005900A07F022900732E0FE90074B
:109F470031E0FDEDFF900A0CEEF0A3EFF0900A0769
:039F57007401F0A2
:019F5A0022E4
:107FE500E47B0AFAF9F81216B8900743EEF0A3EF0E
:107FF500F0E490074DF090074DE0FFC3940450283E
:10800500EF25E024CBF582E434C9F583E493FE74CF
:108015000193FFC3900744E09F900743E09E5008FB
:1080250090074DE004F080CE90074DE0FF25E02459
:10803500CBF582E434C9F583E493FC740193FDEF39
:1080450025E024C9F582E434C9F583E493FA740183
:1080550093FBC39DFFEA9CFEE4FCFD9007491218C3
:108065006CC3900744E09B900743E09A90074DE06E
:10807500406525E024C9F582E434C9F583E493FE1F
:10808500740193FFC3900744E09FFF900743E09E70
:10809500FE7C017DF41219EB90074512186C9007D0
:1080A50049E0F8A3E0F9A3E0FAA3E0FB900745E077
:1080B500FCA3E0FDA3E0FEA3E0FF1216B8AB07AA00
:1080C5000690074DE0FF7E007C017DF412147DC310
